:10000000F8FF0020110400001B3200001B3200002A
:100010001B3200001B3200001B3200001B320000AC
:100020001B3200001B3200001B3200001B3200009C
:100030001B3200001B3200001B3200001B3200008C
:100040001B3200001B3200001B3200001B3200007C
:10040000FFFFFFFFFFFFFFFFFFFFFFFFFEFFFFFFFD
:1004100062B604F0FBF8FEE72DE9F04FA1B082468A
:10042000002017461D4602910B900DF1440B6FF012
:1004300000490AE017F8011B0298D04702900028F3
:1004400000F0A3820B98401C0B90387808B90B98E9
:100450009DE22528EED10020059006900790089097
:1004600009900A9001E040F0010017F8011F2029CF
:10047000F9D023290DD02B2904D02D2906D03029DD
:100480000AD00CE040F0020080B2EEE740F0040039
:10049000FAE740F00800F7E740F01000F4E72A29F7
:1004A0000ED12968296051F8042B29600D92002A89
:1004B00004D5514240F004000D9180B27F1C11E040
:1004C00000210D9109E00D99494505D001EB81030B
:1004D00002EB430130390D917F1C3A78A2F13001D3
:1004E0000A29F0D339782E2903D04FF0FF310C912F
:1004F0001DE017F8011F2A2907D1296829607F1CF0
:1005000051F8042B29600C9211E000210C9109E0B4
:100510000C99494505D001EB810302EB43013039C9
:100520000C917F1C3A78A2F130010A29F0D3ADF882
:1005300038000FF6B820397800F076FD08B117F8CA
:10054000010B8DF83A009DF83A00682802BF39780F
:100550006829622005D06C2804BF38786C2803D144
:1005600071208DF83A007F1C11A8049017F8014BF8
:10057000B4F1250024D02038022840F2C680133878
:1005800000F0EC800B3800F05081401E00F0258117
:10059000401E022840F2B980001F00F01E81401F5B
:1005A00000F08480401E00F0D980401E29D0C01E7B
:1005B0000CD0801E00F0D280C01E00F0CF803EE143
:1005C0000120059025208DF8440044E1286828602A
:1005D00050F8044B28600394DDF83080B8F1000F28
:1005E00004D5204600F02CFD804607E0424600215D
:1005F000204600F041FD08B1A0EB0408CDF81880BA
:1006000029E1296829604FF03C0851F8040B296062
:100610000021CDE9000111A80390DDE90001049C4F
:1006200011B908B90C9ACAB10206120FA0EB021256
:100630003032A8F1010ED2B2F0463A2AA8BF2732D2
:1006400000090EF8042040EA0170090908BF0028DB
:1006500004D0039A08EB04039A42E5D308EB0400A4
:100660000390C8F13C010C980691814209DA401AC6
:1006700008904FF6EF71BDF838000840ADF838002B
:10068000E9E0002840F1E7809DF8380000F0140010
:10069000102840F0E0800D98059A801A089A801A78
:1006A000401A0128C0F2D7800890D4E09DF83A00A3
:1006B00062281AD0682806D06A280CD06C281CD072
:1006C000712808D019E02868286050F8041B2860B9
:1006D0000B980880BFE02868286050F8042B286039
:1006E0000B98C117C2E90001B5E02868286050F8EE
:1006F000041B28600B980870ADE02868286050F84B
:10070000041B28600B980860A5E02868C01D20F035
:1007100007022A60D2E9000108322A60CDE900010F
:10072000002903D5012005902D200CE0BDF83800EC
:10073000810703D5012005902B2004E0C00704D5D4
:100740000120059020208DF84400059911A8081873
:100750000390214600A800F0D7F97CE09DF83A20EC
:100760006C2A0DD0712A18BF6A2A09D12868C01DC9
:1007700020F007032B60D3E9000108332B6005E06C
:100780002968296051F8040B29600021CDE9000196
:10079000682A08BF80B207D0622A08BFC0B203D05F
:1007A000742A18BF7A2A02D10021CDE900019DF8F0
:1007B0003800000730D5DDE90001002908BF002816
:1007C0002AD044F02000782826D130208DF844002B
:1007D0008BF80140022005901EE029469DF83A0062
:1007E00000F0D8F8CDE90001002904DA0598411C91
:1007F00005912D210EE0BDF83800810704D505983C
:10080000411C05912B2105E0C00705D50598411C29
:100810000591202100F80B10059911A808180390E4
:10082000214600A800F0EDF815E0012005902868A9
:10083000286050F8041B28608DF844100BE001205C
:10084000059025208DF84400002C04D00598411C0B
:10085000059100F80B400D980599401A0899401A27
:100860000699401A0999401A0799401A0A99A0EB6B
:1008700001089DF8380040070FD420208DF8400073
:10088000002408E0012310AA00A9504600F097FBBD
:1008900000287AD1641C4445F4DB059C11AE0AE0C3
:1008A00016F8011B0298D047029000286DD00B98D3
:1008B000401C0B90641E002CF2D130208DF84000BB
:1008C0000026089C08E0012310AA00A9504600F069
:1008D00076FB002859D1761CA642F4DB069C039EC9
:1008E0000AE016F8011B0298D047029000284CD06D
:1008F0000B98401C0B90641E002CF2D130208DF818
:1009000040000026099C07E0012310AA00A95046D8
:1009100000F055FBC8BB761CA642F5DB0398069990
:10092000079C0E1809E016F8011B0298D0470290A8
:1009300058B30B98401C0B90641E002CF3D1302050
:100940008DF8400000260A9C07E0012310AA00A9A8
:10095000504600F034FBC0B9761CA642F5DB9DF88A
:10096000380040077FF571AD20208DF8400000244D
:1009700000E0641C4445BFF668AD012310AA00A93D
:10098000504600F01CFB0028F3D04FF0FF3021B0A0
:10099000BDE8F08F622826D068281DD06A2808D0CC
:1009A0006C2827D0712804D0742823D07A280CD042
:1009B00020E00868C01D20F007000860D0E900238F
:1009C000083008601946104670470A680A6052F8F5
:1009D000040B0A60002170470A680A6052F8040B91
:1009E0000A6000B20BE00A680A6052F8040B0A6061
:1009F00040B204E00A680A6052F8040B0A60C117AA
:100A000070472DE9FA4E05460A462F696F2A08BF3E
:100A1000082405D041F02000782814BF0A241024AF
:100A2000D5E900013C2681468A46642A18BF692A16
:100A300005D1002903DAD9F100096AEB4A0ABAF1B3
:100A4000000F08BFB9F1000F0CD1286B50B9082C6A
:100A500036D195F83800000732D530203B2687F88C
:100A60003B002DE0E31748465146224600F030FB9C
:100A7000A4FB0023A9EB02023032A6F1010BD2B293
:100A80005E463A2A03DB9DF80030513B9A180BF87A
:100A9000072081465FEA010A08BFB9F1000F03D0C1
:100AA000E868F1198842DDD3082C09D195F838009F
:100AB000000705D5F05D302802D0761E3020F055B5
:100AC000C6F13C00A861F119E960296B884208DA97
:100AD000081A28624FF6EF71288F08402887BDE872
:100AE000F38E00290ED595F8381001F01401102965
:100AF00008D1696B6A69891A2A6A891A081A012851
:100B0000A8BF2862BDE8F38E2DE9F34F8BB0D0E982
:100B10000089006B01AF002848BF062005D404BF40
:100B200041F02000672802D101200B99086340F2B0
:100B3000FF720B984168C1F30A50904220D108031C
:100B400002BF0B98006800280AD10B990320886126
:100B50009DF8300061381A2858D30FF2A44109E0FB
:100B60000B99032088619DF8300061381A284AD318
:100B70000FF284410B98C068032200F021FB00E1D2
:100B8000012807DA0B9800F056FB012802DB00234E
:100B90000026EDE00B9A526840F2FE3161F31E52DE
:100BA0000B994A6040F2FE31461A404649460022FF
:100BB000002300F061FB38BF89F0004936B247F2EC
:100BC000975070434949DFF828B190FBF1F636B2EF
:100BD000C6F107079246012F1BDBF80707D55246DF
:100BE0005B464046494600F05FFB804689467F10E1
:100BF0005046594652465B4600F056FB82468B46AD
:100C0000002FEAD126E00FF2EC31B3E70FF2EC311E
:100C1000B0E77F420024374D12E0F80707D552466F
:100C20005B462046294600F03FFB04460D467F10F8
:100C30005046594652465B4600F036FB82468B468C
:100C4000002FEAD14046494622462B4600F0FEFBE3
:100C5000804689469DF8300040F02005662D0CBF87
:100C600006F10A0006200B99096B4718142FA8BF3C
:100C7000132730208DF804000DF10504DFF878B05B
:100C8000012F3BDB4046494600F004FD014604F1DC
:100C9000080204234FF00A0CB1FBFCFC0CEB8C04A3
:100CA000A1EB4401303102F8011D0A21BCFBF1FE29
:100CB0000EEB8E04ACEB44043034714602F8014D67
:100CC0005B1EE7D1083F02F10804012FD8DB00F0DA
:100CD000F7FC02460B464046494600F0FFFC002266
:100CE0005B4600F0E1FA80468946CBE7A08601002A
:100CF000000024400000F03F84D797410DF105002B
:100D0000201A0DF1050702E0401E761E7F1C39787F
:100D10003029F9D0662D02D136B2711C03E0652D61
:100D20000CBF012100210B9A126B8B181BB2984249
:100D3000B8BF03461BB219001AD4814204DAC85D59
:100D40003528A8BF392000DA3020CA19521E00E029
:100D50005B1E12F80159491E8542F9D0392802D18B
:100D6000C85D401CC855002902D57F1E5B1C761C3F
:100D700036B29DF830100B9800961BB23A4600F040
:100D800003F80DB0BDE8F08F2DE9F04786B00646B8
:100D90008A4690461D4600F07EFD406A376B90F80B
:100DA0000090012D02DA01250FF258284AF02000A8
:100DB000BDF93840662808BF641C13D0672840F08E
:100DC000888014F1040F73DBBC4271DA96F83800A6
:100DD000641C000702D4BD42B8BF2F4624B23F1B9B
:100DE00048BF0027F068B16924B2012C21DA302312
:100DF0004A1C0B54012F03DA96F83810090702D564
:100E000002F80090521CB261E742B8BF7C4224B2A3
:100E10006142E7197162AF42B8BF3D462DB2F5613C
:100E20002A46B3694146181800F0CAF9781BB06227
:100E3000AEE00818A54216DA2A46414600F0C0F98D
:100E4000B1696918B161601B7062012F03DA96F80D
:100E50003800000705D5F06801F80090F069401CE3
:100E6000F061B76294E02246414600F0A9F9B0690A
:100E700020182D1B012F03DA96F83810090703D527
:100E8000F16800F80190401C2DB2B061AF42B8BFCC
:100E90003D46F068B3692DB22A4604EB08011818E4
:100EA00000F08EF9B0692818B061781B70626FE0AD
:100EB000BD4204DA96F83810090758BF2F467F1E46
:100EC00048BF0027BAF1670F0CBF4FF0650A4FF01B
:100ED000450AB169F06818F8013B0B544A1C012F10
:100EE00005DA96F83810090758BFB26115D502F82F
:100EF0000090531CB361012F0FDB6D1E2DB2AF426A
:100F0000B8BF3D462DB22A464146181800F058F9A0
:100F1000B0692818B061781B7062F068B16901EBA4
:100F20000008200008F801AB03D42B2008F8010BBF
:100F300003E02D2108F8011B6442002502AF08E000
:100F40000A2200A800F0C0FC019807F8010B6D1CF4
:100F5000009C21B20129F3DA022D06DA4AF02000C2
:100F6000652804BF302008F8010B4DB9302008F87F
:100F7000010B07E06D1E02A8285C303008F8010B59
:100F8000012DF7DAF068B1690818A8EB0000F061EC
:100F900096F8380000F0140010280DD17069B1697E
:100FA0000818716A0818F1690818B16A0818716B95
:100FB0008842BCBF081A306206B0BDE8F087F8B5B9
:100FC00004460D4616461F46002004E0E86A401C11
:100FD000E8627F1E002047B116F8011BA868A047F1
:100FE000A8600028F2D14FF0FF30F2BD686A6C743F
:100FF0007A4C00006E616E004E414E00696E6600D4
:10100000494E4600300050F8041B61B150F8042BE3
:10101000D30744BFA9F101039A18002342F8043B07
:10102000091FFAD1EFE770470278C9B28A421AB1B4
:101030001CBF10F8012FF9E718BF0020704701FE10
:1010400000F10103810704D010F8011B89B1810769
:10105000FAD10268B2F10131914311F0803F04BF2F
:1010600050F8042FF6E710F8011B11B110F8011B1E
:10107000FBE7C01A7047FE01C9B2830706D0521EB3
:1010800022D310F8013B9942F7D11FE0083A13D35D
:1010900002F1040241EA012141EA014150F8043B16
:1010A000121F21BF4B40A3F1013C2CEA030C1CF0A2
:1010B000803FF3D0C9B2001F083210F8013B521E26
:1010C00028BF91EA030FF8D818BF0120401E7047CF
:1010D0001B4213D1094236D12AB18446B0FBF2F04B
:1010E00002FB10C2704700F0F7BBFCD300220023C4
:1010F00070470B000200002100207047904271EB06
:10110000030CF6D370B5B1FA81F4B3FA83F52C1B56
:10111000A340C4F1200532FA05F63343A2405FF044
:101120000046E64002E05B085FEA3202841A71EB97
:10113000030524BF204629467641F4D302000B0064
:101140003000002170BD012ACFD970B5140C20D019
:10115000B1FA81F4B2FA82F5C4F120046419B4F151
:101160002006D6D3B2405FF00044F440002502E0F0
:1011700052085FEA3303C61A71EB020E24BF3046F1
:10118000714664416D41F3D302000B002000290039
:1011900070BD0C46B1FBF2F102FB11452D0445EA8E
:1011A0001045B5FBF2F402FB145580B240EA054548
:1011B000B5FBF2F002FB105240EA044070BD0000A3
:1011C00062B38B0708D0521E11F8013B00F8013BB7
:1011D00000F024808B07F6D1830740F0208000BF09
:1011E000103A07D330B4B1E83810103AA0E83810FC
:1011F000F9D230BC530724BFB1E80810A0E80810AA
:1012000044BF51F8043B40F8043BD20724BF31F8F7
:10121000022B20F8022B44BF0B7803707047083A6A
:1012200007D3B1E80810083A40F8043B40F804CB73
:10123000F7D25307E4E730B4436803F000420121DA
:101240001B031B0B436004BF0368002B08D10DE098
:101250000368DD0F45EA440444605B000360491EF7
:101260004468E302F4D523031B0B436043681A432D
:101270004260084630BC70474FF4001C1CEB410F25
:1012800094BF1CEB430F09E041EA030C50EA4C0CFD
:1012900052EA0C0C03D2994208BF9042704714BF27
:1012A0008B42824270470000B0B581EA030C0CF01B
:1012B000004C40F2FF7515EA11541DBF15EA135793
:1012C000AC42AF4239E0E41923EA455343F48013BA
:1012D000C90241F0004141EA505EC7021100A7FB7C
:1012E000020200284FF00000EEFB01204FF0000149
:1012F000E3FB072118BF42F00102401800214941D9
:10130000E3FB0E01A4F580640F0302D252004041BA
:10131000494154F101046CDD470872F1004250F17B
:10132000000051EB0451A1F580115CBF41EA0C01B2
:10133000B0BD4CEA05510020B0BD05EA1357AC42E0
:1013400014BFAF4241E050EA410E1CBF52EA430EC7
:1013500002E061460020B0BD24423C441BD15FEA5C
:10136000070EF6D0090302BF01460020AEF1140EAD
:10137000B1FA81F7AEEB070401FA07FE0C37C7F1AB
:10138000200100FA07F7C8404EEA000E23EA455351
:1013900043F48013A2E733F00043B3FA83F704BFAA
:1013A000B2FA82FE77440B3FE41BB7F1200E2FBF49
:1013B00002FA0EF3BB40C7F1200E22FA0EFE38BF30
:1013C00043EA0E03BA40641C82E750EA410E14BFA0
:1013D00052EA430E6FF000014FF4001717EB430F72
:1013E0008ABF194617EB410FB5E74CEA05510020BB
:1013F000B0BDD4F10104B4F120070FDAC4F1200725
:10140000520828BF42F0010210FA07F501FA07F767
:10141000E1BF2A43E0403843E1400FE0352C98DC3F
:10142000C7F1200452EA400220FA07F218BF42F046
:10143000010231FA07F0A1400A43002172F1004293
:1014400050F1000051EB0C01B0BD0000F0B540F2CE
:10145000FF7581EA030C0CF0004C15EA11541DBF16
:1014600015EA1357AC42AF42E5E0BC41C1F31301AA
:10147000C3F31303801A994143F4801304D2641E0A
:101480004000494180185941C90241EA5051B1FB1D
:10149000F3F603FB1611A2FB0675D7EBC020A9419A
:1014A00002D2761E80185941C90241EA5051B1FB5F
:1014B000F3FE03FB1E11A2FB0E75D7EBC020A94162
:1014C00003D2AEF1010E80185941890241EA9051D0
:1014D000760546EA8E2EB1FBF3F603FB1611A2FB4E
:1014E0000675D7EB8020A94102D2761E801859419B
:1014F000C90241EA50514EEA060EB1FBF3F603FB76
:101500001611A2FB0675D7EBC020A94102D2761EA8
:1015100080185941C90241EA5051B1FBF3F703FB6E
:101520001711A2FB0735D3EBC020A94167F10007D3
:101530000CBF004247F0010766F3D5274FEA1E3182
:10154000B80814F5806412DDBD0775F1004250EB58
:101550000E5051EB045111F5801F5CBF41EA0C01A4
:10156000F0BD4CF07F6141F0E0410020F0BDBD07CF
:101570006D0840EA0E5041F48011D4F10104B4F139
:1015800020060ADAC4F120060200E04001FA06F360
:10159000E1401843B24015430EE0342C13DCC6F191
:1015A000200445EA40056D0820FA06F2154321FAA9
:1015B00006F0A1400D43002175F1004250F10000FA
:1015C00051EB0C01F0BD00205FEA0C01F0BDCFB97A
:1015D00092185B41B3FA83F704BFB2FA82F6BF19DF
:1015E0000B3FB7F120062FBF02FA06F3BB40C7F14D
:1015F000200622FA06F638BF3343BA401CB1E4197C
:10160000641E33E77F4231F00041B1FA81F404BF38
:10161000B0FA80F6A4190B3CB4F120062FBF00FAF3
:1016200006F1A140C4F1200620FA06F638BF314386
:10163000A0403C1B1AE7AC421ABF05EA1357AF4261
:1016400012E050EA41061CBF52EA4306BFE750EAE7
:101650004107304661461CBF41EA0551F0BD52EAE0
:10166000430C08BFC143F0BD00204FF4001616EB39
:10167000410F98BF16EB430F08BF16EB410F24BF75
:10168000C14305E016EB430F0CBF61464CEA055120
:10169000F0BD0000400D40EAC120490080F00D80FF
:1016A00040F00040490DA1F58061491C05D4D1F1FD
:1016B0001F0154BFC840C01770474FF0000070476B
:1016C000010000BF09D0B0FA80F18840C91CC1F503
:1016D0008461090501EBD0214005704770B44FF0DB
:1016E000004591EA030F44BF6B4000F0F7B800BF1C
:1016F000841A71EB030604D26E40001BB14112192B
:1017000073414FF4001C1CEB410F34BF7CEB4306CC
:1017100084E00C0DA4EB1356362E7DDC012E43DC49
:1017200045EAC32343EA525312BFD20292025B0836
:10173000240545EAC12141EA5051D2EBC02099412C
:1017400025D407D1B0FA80F610FA06F164D0002053
:10175000203608E0B1FA81F6B140C6F1200220FA45
:1017600002F21143B0404FEAF474B4EB465434F043
:1017700001064FEA74040AD8D6F50016760D04F077
:101780000044F04061FA06F25040F1404840C00A7F
:1017900040EA415021F0004128BF5FEA500550F176
:1017A000000044EBD12137E045EAC323DB0A45EAD8
:1017B000C121C90AB6F120050EDD42EA0242120C2F
:1017C000C5F1200603FA06F6EB4042EA06056D4233
:1017D000984161F100010DE062FA06F5F2405540D2
:1017E00063FA06FC82EA0C02F3405A406D429041D3
:1017F00061EB030111F4801F05D1641E620502D064
:101800006D004041494121F48011430875F10043C6
:1018100050F1000041EB045170BC70471CEB410FCC
:1018200015D223F0004352EA43060BD04FEA4C0C8A
:10183000BCEB410F04D80C0D661E342EB7DDEBE770
:10184000801A994150EA410608BF0021E4E708BF29
:101850001CEB430F28BF6FF00001DDE780B5134894
:1018600000F0A6F80FF24801016041608160C1609C
:101870000161416181610FF23C0242628162C16299
:10188000016341630FF2300282630FF23402C263DC
:101890000164416401BD10B5044800F089F80446B4
:1018A000206808B9FFF7DAFF204610BD1C11FF1FA2
:1018B000000000002E00000066616C7365000000EF
:1018C000747275650000000091FBF2F303FB1211C6
:1018D000C0E900317047000070470000841A71EBC6
:1018E000030603D2001BB141121973414FF4001CCF
:1018F0001CEB410F34BF7CEB430443E00C0DA4EB25
:101900001356352E50DC45EAC323DB0A45EAC121D4
:10191000C912B6F120050DDD63FA05F6EB4086EA43
:101920000305124218BF45F00105C01851F100012E
:101930000CD213E062FA06F5F2405540F3415A40EA
:10194000B340F3405A408018594107D349085FEA31
:1019500030005FEA350528BF45F0010501F580112B
:10196000420875F1004250F1000041EB045170BC97
:101970004FF4001C1CEB410F38BF70470020090DCD
:10198000090570471CEB410F10D252EA43060BD0F9
:10199000BCEB410F05D80C0DAB43661E342EB5DDF4
:1019A00002E0AB438018594170BC704770BC70476F
:1019B0007047000000000000000000000000000070
:1019C0000000000000000000000000000000000017
:1019D00000004E6F6E4D61736B61626C65000000BC
:1019E00000486172644661756C740000000000007C
:1019F0004D656D4D616E6167656D656E7400004289
:101A000075734661756C740000000000000055732A
:101A10006167654661756C7400000000000000009D
:101A200000000000000000000000000000000000B6
:101A300000000000000000000000000000000000A6
:101A40000000000000000000000000000000000096
:101A5000000000000000000000535643616C6C0061
:101A6000000000000000000044656275674D6F6E65
:101A700069746F72000000000000000000000000A8
:101A800000000000000050656E6453560000000026
:101A900000000000005379735469636B000000007C
:101AA00000000000444D4130000000000000000034
:101AB000000000444D413100000000000000000023
:101AC0000000444D41320000000000000000000012
:101AD00000444D4133000000000000000000000001
:101AE000444D4134000000000000000000000044AC
:101AF0004D41350000000000000000000000444D92
:101B000041360000000000000000000000444D418C
:101B1000370000000000000000000000444D413884
:101B20000000000000000000000000444D413900AA
:101B300000000000000000000000444D4131300072
:101B4000000000000000000000444D413131000061
:101B50000000000000000000444D41313200000050
:101B600000000000000000444D413133000000003F
:101B7000000000000000444D41313400000000002E
:101B80000000000000444D4131350000000000001D
:101B900000000000444D415F4572726F720000000A
:101BA0000000004D434D0000000000000000000058
:101BB00000004654464C00000000000000000000F9
:101BC00000526561645F436F6C6C6973696F6E008E
:101BD0004C56445F4C565700000000000000004C7B
:101BE0004C5700000000000000000000000057619A
:101BF000746368646F6700000000000000524E4785
:101C000000000000000000000000000049324330E6
:101C100000000000000000000000004932433100D5
:101C20000000000000000000000053504930000098
:101C30000000000000000000005350493100000087
:101C40000000000000000000535049320000000076
:101C50000000000000000043414E305F4F525F4DD6
:101C6000425F6275660043414E305F4275735F4F5D
:101C7000666600000043414E305F4572726F72002D
:101C80000000000043414E305F54785F5761726E30
:101C9000696E6743414E305F52785F5761726E697B
:101CA0006E6743414E305F57616B655F5570000052
:101CB000005265736572766564353100000000007E
:101CC000526573657276656435320000000000432A
:101CD000414E315F4F525F4D425F62756600434136
:101CE0004E315F4275735F4F666600000043414EA0
:101CF000315F4572726F72000000000043414E3147
:101D00005F54785F5761726E696E6743414E315F11
:101D100052785F5761726E696E6743414E315F570B
:101D2000616B655F55700000005265736572766582
:101D30006435390000000000526573657276656491
:101D40003630000000000055415254305F52585F59
:101D500054580000000055415254305F4552520023
:101D6000000000000055415254315F52585F5458F2
:101D70000000000055415254315F455252000000AE
:101D800000000055415254325F52585F54580000D1
:101D9000000055415254325F45525200000000008D
:101DA0000055415254335F52585F545800000000B0
:101DB00055415254335F4552520000000000005517
:101DC000415254345F52585F54580000000055414E
:101DD0005254345F455252000000000000554152F9
:101DE00054355F52585F545800000000554152541A
:101DF000355F45525200000000000041444330006E
:101E000000000000000000000000414443310000D9
:101E1000000000000000000000434D5030000000B2
:101E20000000000000000000434D503100000000A1
:101E300000000000000000434D5032000000000090
:101E400000000000000046544D300000000000007B
:101E5000000000000046544D31000000000000006A
:101E60000000000046544D32000000000000000059
:101E7000000000434D54000000000000000000007E
:101E80000000525443000000000000000000000069
:101E90000052657365727665643833000000000097
:101EA00050495430000000000000000000000050C5
:101EB00049543100000000000000000000005049BB
:101EC000543200000000000000000000005049549F
:101ED00033000000000000000000000050444230C9
:101EE00000000000000000000000005553423000D8
:101EF000000000000000000000005553424443442D
:101F0000000000000000000000454E45545F3135E0
:101F100038385F54696D6572454E45545F5472613F
:101F20006E736D69740000454E45545F526563657C
:101F3000697665000000454E45545F4572726F72C8
:101F40000000000000493253300000000000000093
:101F5000000000005344484300000000000000005F
:101F60000000004441433000000000000000000079
:101F70000000444143310000000000000000000068
:101F80000054534930000000000000000000000031
:101F90004D43470000000000000000000000004C1E
:101FA0005054696D65720000000000000000526529
:101FB00073657276656431303200000000504F5214
:101FC000544100000000000000000000504F525437
:101FD0004200000000000000000000504F52544337
:101FE00000000000000000000000504F5254440068
:101FF000000000000000000000504F525445000057
:102000000000000000000000526573657276656490
:1020100031303800000000526573657276656431B6
:1020200030390000000052657365727665643131A5
:10203000300000000052657365727665643131319D
:1020400000000000526573657276656431313200BC
:1020500000000052657365727665643131330000AB
:10206000000052657365727665643131340000009A
:102070000052657365727665643131350000000089
:102080005265736572766564313136000000005226
:102090006573657276656431313700000000526502
:1020A00073657276656431313800000000526573E3
:1020B00065727665643131390000000000F00F4030
:1020C00040F00F4080F00F40C0F00F4000F10F4093
:1020D00066000A1D32000701640007106E00040646
:1020E000780004088200040A8C00040C9600040E98
:1020F000A0000410AA000412B4000414BE000416C8
:10210000C8000418D200041ADC00041CE100041DFD
:10211000E600041EEB00041FF4000317FA00031886
:10212000130101062C01021400010908009004406B
:1021300000A0044000B0044000C0044000D00440AF
:1021400000A0064000B0064000C0064000D0064097
:1021500000A00E4000B00E406A6E6B6C676D4E4F73
:102160004001F00001000000343536370100000066
:102170000DC1110009030CD01240173F185019036C
:102180001A783200A00A63E0ACFF650C66006700B5
:1021900029142C1E2A007E0C7F16802A814E826113
:1021A000836F847B8586868E879788A489AF8AC54E
:1021B0008BD78CE88D204A00491347084B144C17E5
:1021C000460522992303A6049B009CFFAB069E11A3
:1021D0009F0200003100000002040101CC10FF1F2B
:1021E0001C11FF1FCC10FF1FCC10FF1FCC10FF1FB6
:1021F000710CFF1F580CFF1F0000000000000000C2
:1022000000000000000000000000000000000000CE
:1022100000000000000000000000000000000000BE
:1022200000000000000000000000183C3C3C1818B2
:102230001800181800000000006666662400000000
:1022400000000000000000000000006C6CFE6C6CE0
:102250006CFE6C6C0000000018187CC6C2C07C06C6
:1022600086C67C181800000000000000C2C60C18CA
:102270003060C686000000000000386C6C3876DCE8
:10228000CCCCCC7600000000003030306000000084
:10229000000000000000000000000C18303030305A
:1022A0003030180C00000000000030180C0C0C0C32
:1022B0000C0C1830000000000000000000663CFF1D
:1022C0003C66000000000000000000000018187EBE
:1022D00018180000000000000000000000000000CE
:1022E000001818183000000000000000000000FE78
:1022F00000000000000000000000000000000000DE
:1023000000001818000000000000000002060C1871
:102310003060C0800000000000007CC6C6CED6D66B
:10232000E6C6C67C000000000000183878181818AF
:102330001818187E0000000000007CC6060C18303B
:1023400060C0C6FE0000000000007CC606063C0619
:102350000606C67C0000000000000C1C3C6CCCFE95
:102360000C0C0C1E000000000000FEC0C0C0FC0EE3
:102370000606C67C0000000000003860C0C0FCC635
:10238000C6C6C67C000000000000FEC606060C188B
:10239000303030300000000000007CC6C6C67CC66D
:1023A000C6C6C67C0000000000007CC6C6C67E060D
:1023B00006060C780000000000000000181800005D
:1023C00000181800000000000000000018180000AD
:1023D0000018183000000000000000060C183060E3
:1023E00030180C0600000000000000000000FE0095
:1023F00000FE0000000000000000006030180C0625
:102400000C1830600000000000007CC6C60C1818D4
:1024100018001818000000000000007CC6C6DEDEB0
:10242000DEDCC07C00000000000010386CC6C6FE78
:10243000C6C6C6C6000000000000FC6666667C6674
:10244000666666FC0000000000003C66C2C0C0C0BA
:10245000C0C2663C000000000000F86C666666665C
:1024600066666CF8000000000000FE66626878682E
:10247000606266FE000000000000FE666268786828
:10248000606060F00000000000003C66C2C0C0DE7A
:10249000C6C6663A000000000000C6C6C6C6FEC634
:1024A000C6C6C6C60000000000003C181818181860
:1024B0001818183C0000000000001E0C0C0C0C0C3E
:1024C000CCCCCC78000000000000E6666C6C78781C
:1024D0006C6666E6000000000000F060606060600E
:1024E000606266FE000000000000C6EEFEFED6C67A
:1024F000C6C6C6C6000000000000C6E6F6FEDECE78
:10250000C6C6C6C6000000000000386CC6C6C6C6F7
:10251000C6C66C38000000000000FC6666667C6081
:10252000606060F00000000000007CC6C6C6C6C641
:10253000C6D6DE7C0C0E00000000FC6666667C6C75
:10254000666666E60000000000007CC6C660380CC7
:1025500006C6C67C0000000000007E7E5A181818CF
:102560001818183C000000000000C6C6C6C6C6C643
:10257000C6C6C67C000000000000C6C6C6C6C6C6E9
:10258000C66C3810000000000000C6C6C6C6C6D61D
:10259000D6FE6C6C000000000000C6C66C6C3838BB
:1025A0006C6CC6C6000000000000666666663C18DB
:1025B0001818183C000000000000FEC6860C1830F9
:1025C00060C2C6FE0000000000003C3030303030F9
:1025D0003030303C0000000000000080C0E0703867
:1025E0001C0E06020000000000003C0C0C0C0C0C41
:1025F0000C0C0C3C0000000010386CC60000000001
:1026000000000000000000000000000000000000CA
:102610000000000000FF0000303018000000000043
:1026200000000000000000000000000000780C7CAA
:10263000CCCCCC76000000000000E06060786C66D6
:10264000666666DC0000000000000000007CC6C07A
:10265000C0C0C67C0000000000001C0C0C3C6CCC10
:10266000CCCCCC760000000000000000007CC6FE50
:10267000C0C0C67C000000000000386C6460F060E0
:10268000606060F000000000000000000076CCCC2C
:10269000CCCCCC7C0CCC78000000E060606C766622
:1026A000666666E60000000000001818003818187A
:1026B0001818183C0000000000000606000E060670
:1026C0000606060666663C000000E06060666C7800
:1026D000786C66E60000000000003818181818181A
:1026E0001818183C000000000000000000ECFED6A6
:1026F000D6D6D6D6000000000000000000DC6666DA
:10270000666666660000000000000000007CC6C629
:10271000C6C6C67C000000000000000000DC666643
:102720006666667C6060F000000000000076CCCC3D
:10273000CCCCCC7C0C0C1E000000000000DC7662CF
:10274000606060F00000000000000000007CC660D7
:10275000380CC67C000000000000103030FC303027
:102760003030361C000000000000000000CCCCCC53
:10277000CCCCCC760000000000000000006666664D
:1027800066663C18000000000000000000C6C6C6D7
:10279000D6D6FE6C000000000000000000C66C38B9
:1027A00038386CC6000000000000000000C6C6C635
:1027B000C6C6C67E060CF8000000000000FECC185D
:1027C0003060C6FE0000000000000E1818187018D7
:1027D0001818180E0000000000001818181800182B
:1027E00018181818000000000000701818180E18AB
:1027F0001818187000000000000076DC00000000CF
:1028000000000000000000000000000010386CC64E
:10281000C6C6FE000000000080B50122012128206C
:1028200000F0D4FA002201214D2000F0CFFA01205F
:1028300000F07BFB0120DFF88015086000F08CFBC6
:10284000642000F072FBCF205FF0C04108800020C0
:102850005FF0D041088081205FF0D04108803020B7
:102860005FF0D0410880642000F05FFBED205FF056
:10287000C041088064205FF0D041088003205FF0F1
:10288000D041088012205FF0D041088081205FF0A5
:10289000D0410880642000F048FBE8205FF0C04190
:1028A000088085205FF0D041088010205FF0D04183
:1028B000088078205FF0D0410880642000F035FB6C
:1028C000CB205FF0C041088039205FF0D041088004
:1028D0002C205FF0D041088000205FF0D0410880BC
:1028E00034205FF0D041088002205FF0D0410880A2
:1028F000642000F01AFBF7205FF0C0410880202020
:102900005FF0D0410880642000F00FFBEA205FF008
:10291000C041088000205FF0D041088000205FF0B7
:10292000D0410880642000F000FBB1205FF0C0417E
:10293000088000205FF0D04108801B205FF0D0416C
:102940000880642000F0F1FAB6205FF0C0410880F2
:102950000A205FF0D0410880A2205FF0D0410880BB
:10296000642000F0E2FAC0205FF0C041088035200A
:102970005FF0D0410880642000F0D7FAC1205FF0FA
:10298000C041088011205FF0D0410880C5205FF071
:10299000C041088045205FF0D041088045205FF0AD
:1029A000D0410880C7205FF0C0410880A2205FF0BE
:1029B000D0410880F2205FF0C041088000205FF025
:1029C000D041088026205FF0C041088001205FF0E0
:1029D000D0410880642000F0A8FAE0205FF0C041F8
:1029E00008800F205FF0D041088026205FF0D041A2
:1029F000088024205FF0D04108800B205FF0D04198
:102A000008800E205FF0D041088009205FF0D0419F
:102A1000088054205FF0D0410880A8205FF0D041AA
:102A2000088046205FF0D04108800C205FF0D04144
:102A3000088017205FF0D041088009205FF0D04166
:102A400008800F205FF0D041088007205FF0D04160
:102A5000088000205FF0D0410880E1205FF0C04195
:102A6000088000205FF0D041088019205FF0D0413D
:102A700008801B205FF0D041088004205FF0D04127
:102A8000088010205FF0D041088007205FF0D0411F
:102A900008802A205FF0D041088047205FF0D041B5
:102AA000088039205FF0D041088003205FF0D041DA
:102AB000088006205FF0D041088006205FF0D041FA
:102AC000088030205FF0D041088038205FF0D0418E
:102AD00008800F205FF0D0410880642000F025FAC4
:102AE000642000F022FA3A205FF0C04108805520AF
:102AF0005FF0D041088011205FF0C0410880642061
:102B000000F013FA29205FF0C0410880AB4800783C
:102B100000F008F82C205FF0C04108800020A84990
:102B2000086001BDC0B20422010091FBF2F000FB7D
:102B30001210A2490870C0B2002806D0022874D032
:102B40003BD3032800F0A980DFE036215FF0C042CC
:102B50001180A8215FF0D04211802A215FF0C0428D
:102B6000118000215FF0D042118000215FF0D0423F
:102B7000118001215FF0D04211803F215FF0D042EF
:102B800011802B215FF0C042118000215FF0D04204
:102B9000118000215FF0D042118000215FF0D0420F
:102BA0001180EF215FF0D0421180F021854A118021
:102BB0004FF4A071844A1180A7E036215FF0C04233
:102BC0001180D8215FF0D04211802A215FF0C042ED
:102BD000118000215FF0D042118000215FF0D042CF
:102BE000118000215FF0D0421180EF215FF0D042D0
:102BF00011802B215FF0C042118000215FF0D04294
:102C0000118000215FF0D042118001215FF0D0429D
:102C100011803F215FF0D04211804FF4A071694ACA
:102C20001180F021684A11806FE036215FF0C042C8
:102C3000118068215FF0D04211802A215FF0C042EC
:102C4000118000215FF0D042118000215FF0D0425E
:102C5000118001215FF0D04211803F215FF0D0420E
:102C600011802B215FF0C042118000215FF0D04223
:102C7000118000215FF0D042118000215FF0D0422E
:102C80001180EF215FF0D0421180F0214D4A118078
:102C90004FF4A0714C4A118037E036215FF0C042FA
:102CA000118018215FF0D04211802A215FF0C042CC
:102CB000118000215FF0D042118000215FF0D042EE
:102CC000118000215FF0D0421180EF215FF0D042EF
:102CD00011802B215FF0C042118000215FF0D042B3
:102CE000118000215FF0D042118001215FF0D042BD
:102CF00011803F215FF0D04211804FF4A071314A22
:102D00001180F021304A1180FFE7704703B42A2078
:102D10005FF0C0410880BDF8000080B2000A5FF09B
:102D2000D0410880BDF80000C0B25FF0D0410880FB
:102D3000BDF80000BDF8041011FA80F0401E00122A
:102D40005FF0D0410880BDF80000BDF804100818FD
:102D5000401EC0B25FF0D04108802B205FF0C04120
:102D60000880BDF8020080B2000A5FF0D041088000
:102D70009DF80200C0B25FF0D0410880BDF80200AB
:102D8000BDF8061011FA80F0401E00125FF0D0412D
:102D90000880BDF80200BDF806100818401EC0B239
:102DA0005FF0D041088002B0704706480088704745
:102DB00005480088704700003410FE43C00BFF1F19
:102DC0002008FE43BC0BFF1FBE0BFF1F70B50400A5
:102DD0000D0016004FF480712000C0B200F046F9DB
:102DE0006DB2002D11D14148E4B2611150F82100BB
:102DF0003E49E4B2621151F822104969012214F0EF
:102E00001F039A409143416136E03848E4B26111B2
:102E100050F821003549E4B2621151F82210496995
:102E2000012214F01F039A4011434161F6B2002EB3
:102E300011D12E48E4B2611150F82100006801213F
:102E400014F01F02914088432849E4B2621151F8FE
:102E50002210086010E02548E4B2611150F821000A
:102E60000068012114F01F02914008431F49E4B299
:102E7000621151F82210086070BD10B504001B48A3
:102E8000E4B2611150F82100406914F01F01C840FC
:102E9000C00703D47B21164800F055F91348E4B26B
:102EA000611150F82100012114F01F029140C1600E
:102EB00010BD10B504000D48E4B2611150F82100B6
:102EC000406914F01F01C840C00703D58C21084891
:102ED00000F039F90548E4B2611150F821000069A9
:102EE00014F01F01C84010F0010010BD180BFF1FA7
:102EF000C449000010B50400002C15D0B4F1807F47
:102F000003D329210F4800F01EF900200E49086064
:102F10000E48046000200E49086005200A49086038
:102F200009480068C003FBD510BD10B5040020009F
:102F3000441E002804D007480068FFF7DBFFF6E7CF
:102F400010BD00002C49000010E000E014E000E09B
:102F500018E000E0BC10FF1F80B53E48006850F448
:102F600040703C4908603C48006850F001003A4914
:102F700008604FF4A861662000F078F84FF4A8616B
:102F8000652000F073F84FF4A861642000F06EF83B
:102F90004FF4A861632000F069F84FF4A861622043
:102FA00000F064F84FF4A8614A2000F05FF84FF495
:102FB000A861492000F05AF84FF4A861482000F0B9
:102FC00055F84FF4A861472000F050F84FF4A8617D
:102FD000462000F04BF84FF4A861452000F046F879
:102FE0004FF4A861442000F041F84FF4A86142205A
:102FF00000F03CF84FF4A861412000F037F84FF49E
:10300000A861402000F032F84FF4A861322000F0AF
:103010002DF84FF4A861332000F028F84FF4A86190
:10302000612000F023F84FF4A8614B2000F01EF857
:103030004FF4A8614C2000F019F85FF0C040074938
:1030400008600748074908604FF460700649086047
:1030500001BD00BF048004404080044000C0004027
:103060000100000804C0004008C0004010B4294A14
:1030700012684FF40073C0B24409A3401A43254BB1
:103080001A60254AC0B2431152F82320012310F0E0
:103090001F04A340C2F8A0301F4AC0B2431152F827
:1030A0002320C0B210F01F0342F8231010BC704759
:1030B00010B4184A12684FF40073C0B24409A34018
:1030C0001A43144B1A60144AC0B2431152F8232019
:1030D000012310F01F04A340C2F8A03031F4E061D6
:1030E0000D4AC0B2431152F82320C0B210F01F03A2
:1030F00052F8232012F4E0621143074AC0B2431190
:1031000052F82320C0B210F01F0342F8231010BC65
:103110007047000038800440880BFF1FDFF800F084
:10312000A50CFF1FDFF800F0C90CFF1FBFF34F8F86
:103130004648006810F4E060454908434349086088
:10314000BFF34F8FFEE738B504000D00002000F0FC
:103150008DF82A0021003F4800F0C0F8002000F060
:10316000A2F84FF47A70FFF7E0FEF2E738B50400FA
:103170000D00210049B2032000F0CEF9200032BD3D
:1031800010B50024042000F0F3F9042000F026FA22
:10319000002841D1002000F069F8042000F01EFA58
:1031A000012801D101200400002000F07CF82A4809
:1031B00000F094F84FF4FA70FFF7B7FEE4B2012C78
:1031C000EBD1042000F00AFA0028E6D1042000F038
:1031D00005FA002806D1002000F065F86420FFF70A
:1031E000A4FEF3E7042000F0F9F9012806D100203D
:1031F00000F059F83220FFF798FEF3E7174800F087
:103200006DF8FFF78BFF6420FFF78FFE0020FFF7BC
:1032100089FFFFF78BFFC0E710BD10B510480468A9
:10322000012000F023F8012000F03DF80D48E4B241
:103230000F2101FB0402E4B221000B4800F04EF81C
:103240004FF47A70FFF771FEEDE700000CED00E03F
:103250000400FA057C490000704B0000844A00001D
:1032600004ED00E01004FF1FC848000010B5040082
:1032700064B2042C07DA01220121174864B2205CF1
:10328000FFF7A4FD0EE0042004002000441E40B21D
:10329000002807D0012201210F4864B2205CFFF70B
:1032A00095FDF2E710BD10B5040064B2042C05DAF8
:1032B000094864B2205CFFF7E0FD0CE00420040044
:1032C0002000441E40B2002805D0034864B2205CB0
:1032D000FFF7D3FDF4E710BDC40BFF1F0EB400B51C
:1032E00082B003A90091024600AB01210348784453
:1032F0000A30FDF791F806BC5DF810FB511800008C
:103300002DE9F84304000D0064B2002C08D0022C13
:103310002CD018D3042C4FD03BD3052C5FD071E0B8
:10332000DFF83402006850F48060DFF82C12086087
:103330004FF440716620FFF799FE4FF4407167200B
:10334000FFF794FE5EE0DFF81002006850F40060C2
:10335000DFF8041208604FF440714320FFF786FE47
:103360004FF440714420FFF781FE4BE0DFF8E801A5
:10337000006850F48050DFF8E01108604FF44071AD
:103380006320FFF773FE4FF440716220FFF76EFE7B
:1033900038E0DFF8C401006850F40050DFF8B811DD
:1033A00008604FF440715020FFF760FE4FF4407109
:1033B0005120FFF75BFE25E0DFF8A001006850F424
:1033C0008060DFF8981108604FF440714E20FFF7DD
:1033D0004DFE4FF440714F20FFF748FE12E0DFF83A
:1033E0007C01006850F40060DFF8701108604FF451
:1033F00040718920FFF73AFE4FF440718820FFF7B3
:1034000035FEFFE7DFF8580164B250F82400C078B9
:1034100010F0F300DFF8481164B251F82410C870BE
:10342000DFF83C0164B250F824008078DFF83011F6
:1034300064B251F82410887064B2002C02D064B2D7
:10344000012C07D1DFF81C0100684FF47A71484362
:10345000814606E0DFF8100100684FF47A714843B6
:1034600081462801B9FBF0F00600B6B2B6F5005F60
:1034700002DB41F6FF700600B9FBF5F0B6B2B0EB27
:1034800006100700BFB2202F03DBDC213748FFF70F
:103490005AFE334864B250F82400007810F0E0007F
:1034A0008046B6B2300A10F01F0050EA08002C49DE
:1034B00064B251F824100870294864B250F824000E
:1034C0004670274864B250F82400807A10F0E0007B
:1034D000804617F01F0050EA0800214964B251F8F5
:1034E000241088721E4864B250F82400007C50F00A
:1034F00088001B4964B251F824100874184864B25B
:1035000050F82400C07850F00C00154964B251F80E
:103510002410C870BDE8F183114A40B252F820204F
:1035200012791206F8D50E4A40B252F82020D17115
:10353000704770B504000D0016003000461E0028CC
:1035400008D095F9001049B2200040B2FFF7E4FF1F
:103550006D1CF2E770BD00003480044028800440F8
:103560009C0BFF1FBC10FF1FC410FF1FE849000089
:1035700010B5040064B2082C0DDA002200212248A4
:1035800064B2205CFFF722FC03211F4864B2205C78
:10359000FFF78EFD14E0082004002000441E40B216
:1035A00000280DD000220021174864B2205CFFF7EC
:1035B0000DFC0321144864B2205CFFF779FDECE7B1
:1035C00010BD10B50400104864B2205CFFF771FC18
:1035D000002801D1002000E0012010BD10B504003A
:1035E000200040B2FFF7EDFF00280AD10A20FFF7C4
:1035F0009CFC200040B2FFF7E4FF002801D100202E
:1036000000E0012010BD0000B40BFF1FDFF800F048
:10361000150EFF1FDFF8B41340B231F8201040B28E
:103620000128C0F2788140B2162880F2748100220D
:10363000DFF89C331A7089B2652904DA0022DFF8BA
:1036400090335A707DE089B2C92904DA0122DFF88B
:1036500080335A7075E089B2B1F5967F04DC02229E
:10366000DFF86C335A706CE089B2B1F5C87F04DCC6
:103670000322DFF85C335A7063E089B2B1F5FA7F58
:1036800004DC0422DFF848335A705AE089B2B1F5FD
:10369000167F04DC0522DFF838335A7051E089B216
:1036A000B1F52F7F04DC0622DFF824335A7048E09E
:1036B00089B2B1F5487F04DC0722DFF814335A7071
:1036C0003FE089B2B1F5617F04DC0822DFF8003306
:1036D0005A7036E089B2B1F57A7F04DC0922DFF84E
:1036E000F0325A702DE089B240F24D42914203DA35
:1036F0000A22B74B5A7024E089B2B1F5966F03DC09
:103700000B22B34B5A701CE089B240F21552914221
:1037100003DA0C22AE4B5A7013E089B2B1F5AF6FE9
:1037200003DC0D22AA4B5A700BE089B240F2DD5245
:10373000914203DA0E22A64B5A7002E00F22A44BEC
:103740005A7089B2332903DA0022A14B9A7071E0D2
:1037500089B2652903DA01229D4B9A706AE089B229
:10376000972903DA02229A4B9A7063E089B2C92939
:1037700003DA0322964B9A705CE089B2FB2903DAE4
:103780000422934B9A7055E089B2B1F5967F03DC21
:1037900005228F4B9A704DE089B2B1F5AF7F03DC03
:1037A00006228B4B9A7045E089B2B1F5C87F03DCE5
:1037B0000722874B9A703DE089B2B1F5E17F03DCC7
:1037C0000822834B9A7035E089B2B1F5FA7F03DCA9
:1037D00009227F4B9A702DE089B240F22722914254
:1037E00003DA0A227A4B9A7024E089B2B1F5167F87
:1037F00003DC0B22764B9A701CE089B240F28B22DC
:10380000914203DA0C22724B9A7013E089B2B1F53F
:103810002F7F03DC0D226E4B9A700BE089B240F2D1
:10382000EF22914203DA0E22694B9A7002E00F22D6
:10383000674B9A7089B21A2903DA0022644BDA7056
:1038400069E089B2332903DA0122614BDA7062E060
:1038500089B24C2903DA02225D4BDA705BE089B24F
:10386000652903DA03225A4BDA7054E089B27E29C3
:1038700003DA0422564BDA704DE089B2972903DA55
:103880000522534BDA7046E089B2B02903DA0622EA
:103890004F4BDA703FE089B2C92903DA07224C4B5B
:1038A000DA7038E089B2E22903DA0822484BDA708C
:1038B00031E089B2FB2903DA0922454BDA702AE0AC
:1038C00089B2B1F58A7F03DA0A22414BDA7022E02D
:1038D00089B2B1F5967F03DC0B223D4BDA701AE01A
:1038E00089B2B1F5A37F03DA0C22394BDA7012E00A
:1038F00089B2B1F5AF7F03DC0D22354BDA700AE0F7
:1039000089B2B1F5BC7F03DA0E22314BDA7002E0E6
:103910000F222F4BDA70704710B50400200040B220
:10392000FFF778FE2B48007810F0FD002949087059
:103930002848007850F0100026490870B820264921
:10394000087026480078C006FBD424480078C0F3ED
:103950008100C0B20228F8D11D48C3781C48827883
:103960001B4841781A480078FFF750FE174864B2A8
:1039700010EB8400807810F0070019490870134894
:1039800064B210EB8400C07810F01F0050F04000CB
:1039900014490870114800788006FBD50F4800785C
:1039A0004006FBD50C48007810F03F000A4908702B
:1039B0000A480078C0F38100C0B20328F8D1034858
:1039C00064B230F82400C0B210BD00002C0BFF1F01
:1039D000840BFF1F014006400040064006400640A1
:1039E000044006400540064001B4BDF80000002830
:1039F00005D0BDF80000401EADF80000F5E701B0AD
:103A0000704780B5012201211A20FFF7DFF901225A
:103A100001211920FFF7DAF923211A20FFF748FBCB
:103A200023211920FFF744FB01BD80B501207A490D
:103A300008600120794908604FF4C870FFF7D4FF8F
:103A400000207749086077480068002804D10120E9
:103A500073490860002016E00120714908600020C9
:103A60006D4908604FF4C870FFF7BEFF00206B4936
:103A700008606C480068002804D00120684908608C
:103A8000002000E0012002BD80B5002063490860ED
:103A90000020614908604FF4C870FFF7A5FF0120BE
:103AA0005E4908604FF4C870FFF79EFF01205A4935
:103AB00008604FF4C870FFF797FF01BD80B5002084
:103AC000564908604FF4C870FFF78EFF0020524936
:103AD00008604FF4C870FFF787FF01204F49086066
:103AE0004FF4C870FFF780FF00204C4908604FF486
:103AF000C870FFF779FF01BD80B500204749086015
:103B00004FF4C870FFF770FF0120434908604FF47D
:103B1000C870FFF769FF0120404908604FF4C87082
:103B2000FFF762FF00203D4908604FF4C870FFF7BF
:103B30005BFF01BD80B5002038490860002038498E
:103B400008604FF4C870FFF74FFF01203349086049
:103B50004FF4C870FFF748FF32480068002807D0CC
:103B600001202F49086000202C490860002006E051
:103B700001202B490860002028490860012002BD6F
:103B800038B5050008242000441EC0B2002818D013
:103B9000280603D501202049086002E000201E49C4
:103BA00008606D004FF4C870FFF71EFF01201B492D
:103BB00008604FF4C870FFF717FF0020174908602E
:103BC000E1E731BD38B5082400250020144908601C
:103BD0002000441EC0B2002815D06D0000200F49FF
:103BE00008604FF4C870FFF7FFFE01200B49086022
:103BF0004FF4C870FFF7F8FE0A4800680028E7D0C5
:103C000055F00105E4E7012005490860002003495B
:103C10000860EDB2280032BD6400FE436800FE4338
:103C2000E402FE436402FE4370B504000D0000266A
:103C30002900C9B2200080B200F00AF8002805D19E
:103C4000761CF6B2142EF3D1002000E0012070BDE6
:103C500038B504000D00FFF7E8FE002801D1002070
:103C600019E04220FFF78CFFFFF764FF002803D123
:103C7000FFF70AFF00200EE02000C0B2FFF780FF30
:103C8000FFF758FF2800C0B2FFF77AFFFFF752FF97
:103C9000FFF7FAFE012032BDF8B504000D00160052
:103CA00000273200D2B2290089B2200000F00AF8C1
:103CB000002805D17F1CFFB21E2FF2D1002000E0AA
:103CC0000120F2BD70B504000D001600FFF7ADFE37
:103CD000002801D1002037E04220FFF751FFFFF715
:103CE00029FF002803D1FFF7CFFE00202CE0300091
:103CF000C0B2FFF745FFFFF71DFFFFF7C5FEFFF757
:103D000094FE002801D100201EE04320FFF738FF79
:103D1000FFF710FF002803D1FFF7B6FE002013E0E5
:103D2000ADB2002D0DD0FFF74DFF2070ADB2012DCB
:103D300002D1FFF7E1FE01E0FFF7C0FE641C6D1E3B
:103D4000EEE7FFF7A1FE012070BD00002DE9F8436A
:103D500080460C005FEA981010F00700C0B25FEADE
:103D600040194046103810F03F00C0B2C0000500B6
:103D700015EB09000700E4B217EBC400401E060073
:103D8000F6B2FFB2BE420DD3002200213800C0B20D
:103D9000FFF71CF84FF481713800C0B2FFF766F9E5
:103DA0007F1CEDE7BDE8F1832DE9F84F04000D001D
:103DB00016001F009DF92880DDF82C90DDF830A05A
:103DC0004FFA88F8B8F1000F02D15FF0010B11E053
:103DD0004FFA88F8B8F1010F02D15FF0020B09E049
:103DE0004FFA88F8B8F1020F02D15FF0040B01E03E
:103DF0005FF0100B4FFA88F8B8F1000F05D1674853
:103E0000854202D36648A84221D24FFA88F8B8F119
:103E1000010F09D16148854206D36248A84203D305
:103E200015F00300032812D14FFA88F8B8F1020FF9
:103E300009D15A48854206D35B48A84203D315F0FE
:103E40000300002803D061215848FFF77CF9B9F539
:103E5000004F03D363215548FFF775F954480068B4
:103E600050F00200524908605248006850F00200C9
:103E700050490860504864B261010D5064B260015D
:103E800000F1804010F510400661002064B261012D
:103E900001F1804111F5104188805FFA8BFB64B21B
:103EA000600100F1804010F51040A0F814B04FFA06
:103EB00088F85FEA082010F4E0604FFA88F818F0FC
:103EC0000701084364B2610101F1804111F510411D
:103ED000C88048464004400C64B2610101F1804151
:103EE00011F51041C88248464004400C64B261019B
:103EF00001F1804111F51041C8833048006830F06D
:103F000080002E4908605FFA8BFB64B2600100F10B
:103F1000804010F51040C0F808B0002064B2610184
:103F200001F1804111F51041C8605FEACA7002D406
:103F3000D9F1000000E0002064B2610101F180418C
:103F400011F5104188614CF20A0064B2610101F17F
:103F5000804111F510418883FFB27809313050F06B
:103F60008000174964B2605416493800C0B2FFF7A8
:103F70007DF85946C9B22800FFF7E8FE12480068EC
:103F80000121A140884310490860104800680121C0
:103F9000A14008430D490860BDE8F18F10F00F40C3
:103FA00013F10F4012F10F4010F10F40A049000033
:103FB000408004403C80044000900040008000406D
:103FC00000100240000101000C80004024800040ED
:103FD000012110F01F029140774A40B2430942F894
:103FE00023107047012110F01F029140734A40B224
:103FF000430942F82310704710B50400704804606C
:1040000000F081F80028FBD000F002F8002010BD7D
:10401000E0B5012002904FF416700190002000904E
:104020001B236748026867490020FFF7BDFE66480A
:10403000006840084000644908605720FFF7D2FF3D
:104040006248006850F00100604908600020FFF7F6
:10405000BFFF5F491B20FFF709F85E491D20FFF7EE
:1040600005F807BD80B55C4890F90000042818D118
:104070000320594908705720FFF7B4FF5FF0006034
:10408000564908605048006850F001004E490860E9
:104090005FF0006051490860494800685049086075
:1040A00005E05720FFF79EFF02204B49087001BD35
:1040B0000120494908704548006850F00100434913
:1040C0000860704780B50420434908705FF0FF30F6
:1040D000424908605720FFF77BFF3F4890F90000F6
:1040E00001280FD03C4890F900000228F5D10420A7
:1040F000394908705FF0FF30384908605720FFF7F2
:1041000067FFEAE701BD10B582B0002400208DF8FA
:104110000000FFF776FC80211220FFF785FD0028C4
:1041200004D13048FFF7DAF8002043E03220FEF7F0
:10413000FCFE0B22012100A8FFF7AEFD002804D1F0
:104140002948FFF7CBF8002034E09DF800102748FD
:10415000FFF7C4F8264801782648FFF7BFF89DF816
:104160000000212825D10020040021480078A4B2B5
:1041700080B2844218D22048A4B210EB44004178A7
:104180001D48A4B210F8140080B2FFF74DFD0028BE
:1041900008D11948A4B210F814101848FFF79EF877
:1041A000002007E0641CE0E71548FFF797F80120BE
:1041B00000E0002016BD000000E100E080E100E02A
:1041C000C810FF1F50F00F400C80004024800040BA
:1041D0000201020012010900C80BFF1FA090044059
:1041E000109000401C4B0000844B00000C4A000063
:1041F000300CFF1FA44A0000CC0BFF1F344B000003
:10420000304A000010B582B03B480468FEF704FB5A
:10421000FEF7CEFDADF80000FEF7C7FDADF80200D9
:104220004FF478420099200000F001F813BDF2B578
:104230000400150000992000FEF768FDBDF800009D
:10424000BDF80210484307002C205FF0C0410880F1
:1042500000200600BE4204D25FF0D0400580761CEC
:10426000F8E7F1BD2DE9F14781B00C0015001E0003
:104270002248D0F800A0FEF79BFD0838BDF80410D6
:10428000884206DBFEF791FD1038BDF80610884223
:1042900000DA2FE051460198FEF738FD2C205FF040
:1042A000C0410880002081465FFA89F9B9F1100FFA
:1042B00020DA1348E4B2210151FA89F10818B0F567
:1042C000007000780700002080465FFA88F8B8F197
:1042D000080F0CDA380603D55FF0D040058002E005
:1042E0005FF0D04006807F0018F10108EDE719F17A
:1042F0000109D9E7BDE8F387CC4B0000D04B0000A3
:104300001822000071B581B00C0015001E00207845
:1043100000282AD0FEF74CFD0838BDF8041088426A
:1043200007DA0020ADF80400BDF806001030ADF843
:104330000600FEF73AFD1038BDF80610884205DA8F
:104340000020ADF806000020ADF8040033009BB259
:104350002A0092B221780198FFF784FFBDF804008B
:104360000830ADF80400641CD1E773BD2DE9FB4FA4
:1043700004009246D34601992000FEF7C7FC2C208A
:104380005FF0C041088000208046BDF806001FFA9B
:1043900088F880453FD21FFA88F8BDF80A0000FB74
:1043A00008F0BDF8061090FBF1F0ADF80000BDF884
:1043B0000000BDF808104843060000200700BDF8C3
:1043C0000400BFB2874223D2BFB2BDF8080000FB91
:1043D00007F0BDF8041090FBF1F0814616FA89F061
:1043E0000500E80810F80B00012115F00702D2F1D2
:1043F00007029140084205D14FF6FF705FF0D041AF
:10440000088003E000205FF0D04108807F1CD6E7E1
:1044100018F10108B9E7BDE8F78F0000DFF800F0F8
:1044200047310000DFF800F02B2F0000F020544946
:104430000870534800780006FBD551480078712178
:10444000084201D0002000E00120704780B54D48AF
:10445000006850F400204B49086049480078000685
:10446000FBD5F020464908700A20FFF7DBFF01BDAD
:1044700010B582B00400A4B24FF4805000FB04F0E9
:1044800000900920404908709DF802003F490870DB
:104490009DF801003E4908709DF800003D490870F4
:1044A000FFF7C4FF002801D100200EE0A4B2002CC9
:1044B0000AD15FF0FF327FF001034FF481612000E9
:1044C00080B200F003F800E0012016BDF0B583B023
:1044D00006000F0014001D00B6B24FF48050BFB2AA
:1044E00000FB06700190BFB2082097FBF0F101FBC2
:1044F0001071002903D0EA212748FFF78FFFBFB2D0
:10450000B7F5805F03DDEC212348FFF787FF9DF8B7
:1045100006001E4908709DF805001D4908709DF8A9
:1045200004001C49087000949DF803001B490870A2
:104530009DF802001A4908709DF801001949087099
:104540009DF800001849087007200F490870009571
:104550009DF80300154908709DF802001449087081
:104560009DF80100134908709DF800001249087079
:10457000FFF75CFF002801D1002000E00120FEBD14
:104580000000024004F00140070002400600024023
:104590000500024004000240044900000B000240F4
:1045A0000A00024009000240080002400F000240D9
:1045B0000E0002400D0002400C000240F0B4114E0B
:1045C000366834000F4E366856F47F060D4F3E6055
:1045D0000E0616F0706656EA0076170517F4700797
:1045E0003E431F0417F470273E43074F3E600026EA
:1045F0003500EDB29D4201D26D1CFAE7014E3460E8
:10460000F0BC704700F001404480044080B500F0E9
:1046100095F800F02AF800F00AF8FEF7B1FD012243
:1046200001210420FEF7D2FB00F0A8F8FEE780B5D8
:104630000C20FFF771F933490860324800684FF4E5
:104640007A714843304908602F4800682F4909684B
:10465000C1F30361491CB0FBF1F02D4908605FF420
:10466000E1310320FEF74CFE01BD2DE9F843294856
:10467000294988420DD000208046B8F5826F08D2C3
:10468000254850F82800234941F8280018F101086E
:10469000F3E7204800F0D0F8204807002048060043
:1046A00020480400A01B80464046B0F101080028C5
:1046B00004D030783870761C7F1CF5E71A488146A4
:1046C0001A480500B5EB090080464046B0F10108E4
:1046D000002805D0002089F8000019F10109F4E74D
:1046E00013481449144A531A98464346B3F1010833
:1046F000002B04D00B780370491C401CF5E7BDE883
:10470000F1830000C010FF1FBC10FF1F4480044055
:10471000C410FF1F0000FF1F000000001004FF1F57
:10472000B419000018220000640EFF1F1C11FF1FA7
:10473000740CFF1F1C4400000C46000080B500F004
:1047400008F80C4800884FF6FE71084009490880B7
:1047500001BDEFF3118072B64CF22051064A118070
:104760004DF62811044A1180C0B2002800D162B66B
:1047700070470000002005400E20054038B526484F
:10478000046826480568FFF73DFD4FF478431F2273
:1047900023492000FFF7B6FDFEF707FBADF8020046
:1047A000FEF706FBADF800001E48FFF725FC4FF4AE
:1047B00078431F221C492000FFF7A4FD0FF22D01B2
:1047C000672000F04AF80FF26901102000F045F868
:1047D000FFF778FC2B00134A00992000FFF7C6FD75
:1047E0004FF416710F4800F04FF8F1E738B50F4855
:1047F00000680028FBD00D48006805005FF0FF301E
:104800000A4908601D20040035FA04F0C00701D5EC
:10481000FFF728FC31BD0000C44B0000C84B00006E
:10482000984B0000640EFF1FA84B0000A0900440AE
:1048300080B5FFF73DFC01BD10B504004FF40070DA
:1048400094FBF0F101FB1041002903D01E210B481D
:10485000FEF779FC0A48046010BD38B504000D006D
:10486000074800680749884203D030210348FEF713
:104870006AFC044864B240F8245031BD644A000028
:1048800008ED00E00000FF1F38B504000D000C48E3
:104890000088ADF802000B480088ADF80000022245
:1048A0000DF102010320FEF744FE2A00210003203F
:1048B000FEF73FFE022200A90320FEF73AFE31BDBB
:1048C0003E100000761000000A2A2A2A2A64656633
:1048D00061756C745F69737220656E74657265646E
:1048E000206F6E20766563746F722025642A2A2AF1
:1048F0002A2A0A0A257320496E74657272757074CB
:1049000000000000453A5C4C43445F373732355F66
:1049100070635C436869705C7372635C4D4B3630E6
:104920005F666C6173682E6300000000453A5C4C62
:1049300043445F373732355F70635C436869705C4E
:104940007372635C4D4B36305F5379735469636B9C
:104950002E63000010B5074979441831064C7C4499
:10496000163404E00A68081D511888470146A14220
:10497000F8D110BDE0000000EC0000004173736549
:104980007274696F6E206661696C656420696E205F
:104990002573206174206C696E652025640A00000F
:1049A000453A5C4C43445F373732355F70635C4354
:1049B0006869705C7372635C4D4B36305F646D6127
:1049C0002E630000453A5C4C43445F373732355F15
:1049D00070635C436869705C7372635C4D4B363026
:1049E0005F6770696F2E6300453A5C4C43445F37E4
:1049F0003732355F70635C436869705C7372635C07
:104A00004D4B36305F756172742E63000A476574D2
:104A10002049442073756363657373A3AC53454E9B
:104A2000534F522049442069732030782578000084
:104A30000A4F56373732352052656769737465728D
:104A400020436F6E666967205375636365737321D6
:104A500000000000B3C5FFFFB8020000640EFF1F96
:104A600000000000453A5C4C43445F373732355F05
:104A700070635C436869705C7372635C6D697363D7
:104A80002E6300000ABDF8D0D0BDE2CBF8B2D9D772
:104A9000F7A3ACC7EBD6D8D0C2CBA2C8EBB9CCBC7D
:104AA000FE0000000A436F6E666967205265676901
:104AB00073746572204E756D62657220697320256E
:104AC000642000004EF68851CEF20001086840F4E0
:104AD000700008604FF00070E1EE100A70470000AF
:104AE00000F00BF8002801D0FFF734FF0020C0468B
:104AF000C046FFF743FE00F002F80120704700F0C7
:104B000001B800000746384600F002F8FBE7000055
:104B100001491820ABBEFBE7260002000ABEAFB871
:104B2000E63A53434342D0B4CAFDBEDDB4EDCEF302
:104B3000000000000ABEAFB8E63AD0B4BCC4B4E688
:104B4000C6F730782578CAA7B0DC000038B504462F
:104B50000D46284600F006F8A84218BF002420465B
:104B600032BD00000149FEF701BB00BF340CFF1F3E
:104B70000ABDF8C8EBCBC0D1ADBBB7B5C8B4FDA377
:104B8000A10000000ABEAFB8E63AB6C1C8A14944C8
:104B9000CAA7B0DC0000000043616D20696E697433
:104BA00020696E670000000043616D20696E6974C2
:104BB000204F4B2100000000C046C046FFF782FF97
:104BC000FFF78EFF0000000050003C0000000000D6
:104BD00008001000000000000000000000000000BD
:104BE00000000000000000000000000000000000C5
:104BF000FFFFFFFFFFFFFFFF0000000000000000BD
:104C000000000000000000000000000000000000A4
:104C1000000000000000000000000000FFFFFFFF98
:104C2000FFFF000000000000000000000000000086
:104C30000000000000000000000000000000000074
:104C40000000000000000000000000000000000064
:0C4C500000000000000000000000000058
:0400000500004BB9F3
:00000001FF
