:10000000F8FF002011040000EF1C0000EF1C0000AE
:10001000EF1C0000EF1C0000EF1C0000EF1C0000B4
:10002000EF1C0000EF1C0000EF1C0000EF1C0000A4
:10003000EF1C0000EF1C0000EF1C0000EF1C000094
:10004000EF1C0000EF1C0000EF1C0000EF1C000084
:10040000FFFFFFFFFFFFFFFFFFFFFFFFFEFFFFFFFD
:1004100062B605F047FAFEE72DE9F44FE8B00400B4
:100420000D0000208DF8250001208DF80000A0208F
:10043000279000202690A020139000201290A0204A
:10044000259000202490A02043900020429001207D
:100450008DF8240000208DF80B0001208DF80A0093
:1004600000208DF8090001208DF8080000208DF88B
:10047000070000205B90A0205A90A020419000200F
:1004800064900020599000205890A0205790A02000
:100490004090002063900020569000205590A020AE
:1004A0005490A0203F9000206290002053900120A3
:1004B0008DF8060000208DF8050001208DF804005D
:1004C00000208DF8030001208DF8020000208DF837
:1004D000010000205290A0205190A0203E900020CA
:1004E00061900020509000204F90A0204E90A020BE
:1004F0003D900020609000204D9000204C90A02066
:100500004B90A0203C9000205F9000204A90002754
:100510005FF001085FF0A0095FF0000AA0200490DE
:1005200050200E900020239000203B9000203A9015
:1005300001202290002008900120219000200790A7
:10054000012020900020069001201F90002005909F
:10055000A0201E9000201D90A0201C9000201B9029
:10056000A0201A9000201990A02018900020179029
:1005700000200D9000200C90002016900020159077
:10058000002011900020109000200B9000200A9075
:10059000A0204990A0204890A0204790A0204690FD
:1005A000A020399000203890A0203790002036906D
:1005B000A020359000203490A0203390002032906D
:1005C00001204590002031900020309000202F9095
:1005D0000120449000202E9000202D9000202C908F
:1005E00050200F9000202B90A0205C90A020149011
:1005F000A0200390A020289000208346BBF19F0FED
:100600001FDA1BEB040090F9E001042807DA1BEB6A
:10061000040090F9E101042801DBCDF898B0B4EBB7
:100620000B0090F97F02042808DAB4EB0B0090F974
:100630007E02042802DBDBF19F0027901BF1010BF7
:10064000DCE700208346BBF19F0F1FDA1BEB0400A1
:1006500090F94001042807DA1BEB040090F94101EE
:10066000042801DBCDF848B0B4EB0B0090F9DF01B2
:10067000042808DAB4EB0B0090F9DE01042802DB51
:10068000DBF19F0013901BF1010BDCE70020834698
:10069000BBF19F0F1FDA1BEB040090F9A0000428A8
:1006A00007DA1BEB040090F9A100042801DBCDF868
:1006B00090B0B4EB0B0090F93F01042808DAB4EBDA
:1006C0000B0090F93E01042802DBDBF19F0025902E
:1006D0001BF1010BDCE700208346BBF19F0F1DDA05
:1006E0001BF90400042807DA1BEB040090F9010051
:1006F000042801DBCDF808B1B4EB0B0090F99F00A2
:10070000042808DAB4EB0B0090F99E00042802DB01
:10071000DBF19F0043901BF1010BDEE7DFF8200DBA
:100720000078002840F0E7800398012804DA039855
:1007300010F1460F80F2DF8000208346BBF1A00F4E
:1007400080F2CC801BEB050010F5B45090F900004E
:10075000012812D11BEB050041F2816108560028E7
:100760000BD19DF82400012807D1CDF86CB10020F1
:100770008DF8240001208DF80B001BEB050010F50F
:10078000B45090F9000000281FD11BEB050041F286
:1007900081610856012818D19DF80B00012814D159
:1007A000CDF868B100208DF80B005A985B99401A7B
:1007B000419041980A2805DA4198012802DB01207E
:1007C000599002E001208DF824001BEB050010F584
:1007D000B95090F90000012812D11BEB050041F23D
:1007E0002171085600280BD19DF80A00012807D175
:1007F000CDF860B100208DF80A0001208DF80900C5
:100800001BEB050010F5B95090F9000000281FD12E
:100810001BEB050041F221710856012818D19DF803
:100820000900012814D1CDF85CB100208DF8090031
:1008300057985899401A409040980A2805DA4098ED
:10084000012802DB0120569002E001208DF80A0009
:100850001BEB050010F5BE5090F90000012812D1E5
:100860001BEB050041F2C171085600280BD19DF821
:100870000800012807D1CDF854B100208DF80800F8
:1008800001208DF807001BEB050010F5BE5090F914
:10089000000000281FD11BEB050041F2C171085672
:1008A000012818D19DF80700012814D1CDF850B1C6
:1008B00000208DF8070054985599401A3F903F98B2
:1008C0000A2805DA3F98012802DB0120539002E054
:1008D00001208DF808001BF1010B2FE75998012822
:1008E00009D15698012806D15398012803D1012037
:1008F000DFF84C1B0870DFF8480B0078002840F048
:10090000E7800398012804DA039810F1460F80F27B
:10091000DF8000208346BBF1A00F80F2CC801BEB70
:10092000050010F5D75090F90000012812D11BEBFB
:10093000050041F6E121085600280BD19DF806007C
:10094000012807D1CDF848B100208DF8060001201C
:100950008DF805001BEB050010F5D75090F900004D
:1009600000281FD11BEB050041F6E12108560128A4
:1009700018D19DF80500012814D1CDF844B100200C
:100980008DF8050051985299401A3E903E980A28D9
:1009900005DA3E98012802DB0120509002E0012098
:1009A0008DF806001BEB050010F5DC5090F90000F7
:1009B000012812D11BEB050041F6813108560028B1
:1009C0000BD19DF80400012807D1CDF83CB10020DF
:1009D0008DF8040001208DF803001BEB050010F5D5
:1009E000DC5090F9000000281FD11BEB050041F6F8
:1009F00081310856012818D19DF80300012814D12F
:100A0000CDF838B100208DF803004E984F99401A68
:100A10003D903D980A2805DA3D98012802DB012027
:100A20004D9002E001208DF804001BEB050010F54D
:100A3000E15090F90000012812D11BEB050041F6AE
:100A40002141085600280BD19DF80200012807D14A
:100A5000CDF830B100208DF8020001208DF80100A2
:100A60001BEB050010F5E15090F9000000281FD1A4
:100A70001BEB050041F621410856012818D19DF8CD
:100A80000100012814D1CDF82CB100208DF801000F
:100A90004B984C99401A3C903C980A2805DA3C98AF
:100AA000012802DB01204A9002E001208DF80200BB
:100AB0001BF1010B2FE75098012809D14D9801280F
:100AC00006D14A98012803D10120DFF87419087073
:100AD000279826990818022190FBF1F06790139847
:100AE00012990818022190FBF1F00600259824992C
:100AF0000818022190FBF1F066904398429908187B
:100B0000022190FBF1F0659026982799401A5C909D
:100B100012981399401A149024982599401A03901A
:100B200042984399401A289025981399401A00F04A
:100B3000BFFD2A9013982799401A00F0B9FD5E90E6
:100B400024981299401A00F0B3FD29901298269922
:100B5000401A00F0ADFD5D90DFF83C0B00780028F6
:100B600040F09F80DFF8D8080078002840F0998096
:100B70002A98092880F295802998092880F2918086
:100B800000208346BBF1A00F7CDA1BEB050010F5BB
:100B9000D75090F9000001280FD11BEB050041F65A
:100BA000E1210856002808D12298012805D100200B
:100BB000229001200890CDF878B01BEB050010F5CD
:100BC000D75090F9000000281CD11BEB050041F61E
:100BD000E1210856012815D10898012812D10020DA
:100BE0000890CDF874B01D981E99401A0D900D987C
:100BF000132805DB0D98192802DA0120119001E075
:100C0000012008901BEB050010F5DC5090F9000066
:100C100001280FD11BEB050041F681310856002851
:100C200008D12198012805D10020219001200790AA
:100C3000CDF870B01BEB050010F5DC5090F900000A
:100C400000281CD11BEB050041F681310856012814
:100C500015D10798012812D100200790CDF86CB06B
:100C60001B981C99401A0C900C98132805DB0C98C3
:100C7000192802DA0120109001E0012007901BF1F1
:100C8000010B7FE71198012807D11098012804D1A2
:100C90000120DFF8041A087003E00020DFF8F819DB
:100CA0000870DFF8F4090078012840F096800020F1
:100CB0008346BBF1A00F80F281801BEB050010F58D
:100CC000DC5090F9000001280FD11BEB050041F624
:100CD00081310856002808D12198012805D100202B
:100CE000219001200790CDF870B01BEB050010F5A6
:100CF000DC5090F9000000281ED11BEB050041F6E6
:100D000081310856012817D10798012814D10020F5
:100D10000790CDF86CB01B981C99401A0C900C9859
:100D2000132805DB0C98192802DA0120109003E043
:100D300001200790002010901BEB050010F5D75004
:100D400090F9000001280FD11BEB050041F6E121CD
:100D50000856002808D12298012805D100202290A9
:100D600001200890CDF878B01BEB050010F5D750A6
:100D700090F9000000281ED11BEB050041F6E1218F
:100D80000856012817D10898012814D1002008908E
:100D9000CDF874B01D981E99401A0D900D98132827
:100DA00005DB0D98192802DA0120119003E00120DB
:100DB0000890002011901BF1010B7AE71098012890
:100DC00002D11198012808D0DFF8CC08007801285A
:100DD00003D10020DFF8C0180870DFF8BC080078E5
:100DE000012840F0898000208346BBF1A00F78DA0B
:100DF0001BEB050010F5115090F9000001280FD1F0
:100E00001BEB050042F241410856002808D120980A
:100E1000012805D10020209001200690CDF868B06F
:100E20001BEB050010F5115090F9000000281BD1B4
:100E30001BEB050042F241410856012814D10698E7
:100E4000012811D100200690CDF864B019981A99A4
:100E5000401A169016981A2802DB01200B9003E026
:100E60000120069000200B901BEB050042F2E041B0
:100E7000085601280FD11BEB050042F2E14108564C
:100E8000002808D11F98012805D100201F900120BB
:100E90000590CDF860B01BEB050042F2E04108562A
:100EA00000281BD11BEB050042F2E1410856012846
:100EB00014D10598012811D100200590CDF85CB01F
:100EC00017981899401A159015981A2802DB0120D6
:100ED0000A9003E00120059000200A901BF1010B0D
:100EE00083E70B98012807D10A98012804D1022032
:100EF000DFF8A4170870FFE7DFF89C0700780228E6
:100F000040F08D8000208346BBF1A00F78DA1BEB08
:100F1000050010F5115090F9000001280FD11BEBCE
:100F2000050042F241410856002808D120980128C6
:100F300005D10020209001200690CDF868B01BEB71
:100F4000050010F5115090F9000000281BD11BEB93
:100F5000050042F241410856012814D106980128A3
:100F600011D100200690CDF864B019981A99401A52
:100F7000169016981A2802DB01200B9003E001203E
:100F8000069000200B901BEB050042F2E041085652
:100F900001280FD11BEB050042F2E1410856002861
:100FA00008D11F98012805D100201F90012005902D
:100FB000CDF860B01BEB050042F2E0410856002876
:100FC0001BD11BEB050042F2E1410856012814D168
:100FD0000598012811D100200590CDF85CB0179834
:100FE0001899401A159015981A2802DB01200A90CA
:100FF00003E00120059000200A901BF1010B83E71C
:101000000B98012802D10A98012808D0DFF8880639
:101010000078022803D10020DFF87C160870DFF882
:1010200078060078012840F0818000208346BBF1DB
:10103000A00F60DA1BEB050010F5DC5090F9000002
:1010400000280FD11BEB050041F68131085601281D
:1010500008D14598012805D1002045900120319004
:10106000CDF8E4B01BEB050010F5DC5090F9000062
:1010700001280FD11BEB050041F6813108560028ED
:1010800008D13198012805D10020319001203090FD
:10109000CDF8E0B01BEB050010F5DC5090F9000036
:1010A00000280FD11BEB050041F6813108560128BD
:1010B00008D13098012805D10020309001202F90D0
:1010C000CDF8DCB01BEB050010F5DC5090F900000A
:1010D00001280DD11BEB050041F68131085600288F
:1010E00006D12F98012803D100202F90CDF8D8B039
:1010F0001BF1010B9BE738983999401A49903698B3
:101100003799401A489048984999884207DA39989F
:1011100038990818022190FBF1F00F9006E03798FB
:1011200036990818022190FBF1F00F90DFF868055E
:101130000078022840F0818000208346BBF1A00F98
:1011400060DA1BEB050010F5115090F90000002843
:101150000FD11BEB050042F241410856012808D18E
:101160004498012805D10020449001202E90CDF80C
:10117000D4B01BEB050010F5115090F900000128C8
:101180000FD11BEB050042F241410856002808D15F
:101190002E98012805D100202E9001202D90CDF809
:1011A000D0B01BEB050010F5115090F9000000289D
:1011B0000FD11BEB050042F241410856012808D12E
:1011C0002D98012805D100202D9001202C90CDF8DC
:1011D000CCB01BEB050010F5115090F90000012870
:1011E0000DD11BEB050042F241410856002806D103
:1011F0002C98012803D100202C90CDF8C8B01BF109
:10120000010B9BE734983599401A479032983399EF
:10121000401A469046984799884207DA359834999B
:101220000818022190FBF1F00F9006E033983299F4
:101230000818022190FBF1F00F90039810F1640F51
:1012400004DA0120DFF85414087006E014980B2823
:1012500003DB0020DFF84414087079480078012887
:101260004AD100208346BBF1A00F3FDA1BEB0400FC
:1012700090F9A00004280DDB1BEB040090F9A100FD
:10128000042807DAB8F1010F04D10120070000207B
:101290008046D9461BEB040090F9A000042822DA0E
:1012A0001BEB040090F9A10004281CDB012F1AD1CC
:1012B00000200700DA46BAEB0900049019EB0A0097
:1012C000022190FBF1F00E9004980A2807DA0498A6
:1012D000002804D4002080460120239003E0012050
:1012E0008046002023901BF1010BBCE723980028C7
:1012F00002D10020524908702398012803D0504899
:101300000078022859D1A020814600208246012081
:1013100080460020070000208346BBF1A00F42DA80
:101320001BEB040090F9400104280DDB1BEB0400CB
:1013300090F94101042807DAB8F1010F04D1012026
:10134000070000208046D9461BEB040090F94001BD
:10135000042825DA1BEB040090F9410104281FDB67
:10136000012F1DD100200700DA46BAEB09000490D6
:1013700004980A2810DA049800280DD4002080462A
:1013800001203A9002202E49087019EB0A00022130
:1013900090FBF1F00E9003E00120804600203A908F
:1013A0001BF1010BB9E73A98002806D124480078D0
:1013B000022802D10320224908702148007803281E
:1013C0004DD100208346BBF1A00F42DA1BEB040095
:1013D00090F9E00104280DDB1BEB040090F9E1011A
:1013E000042807DAB8F1010F04D10120070000201A
:1013F0008046D9461BEB040090F9E001042825DA69
:101400001BEB040090F9E10104281FDB012F1DD123
:1014100000200700DA46BAEB0900049019EB0A0035
:10142000022190FBF1F00E9004980A280ADA049841
:10143000002807D40020804601203B9006E000BF32
:101440009D3BFF1F0120804600203B901BF1010BBC
:10145000B9E73B98002802D1002091490870039811
:10146000012811DB03984B280EDA00208D49087003
:10147000BDF8A0210321002000F0C9FABDF8A02189
:101480000521002000F0C3FA8548007800281DD10E
:101490002A9809281ADA2998092817DA8248007840
:1014A000002813D17D48007800280FD12898012802
:1014B0000CDA289810F1630F08DB012079490870D5
:1014C0000398012802DA02207649087003980B2855
:1014D00003DB01207449087002E0002072490870A3
:1014E0006D4800782B99084300281ED16C4800787D
:1014F00000281AD16B480078002816D114982428A7
:1015000013DB6648007800280FD16748007801286F
:1015100005D02998092808DB2A98092805DBB6F1A7
:10152000500007214843614908605B4800782B99C7
:10153000084300284DD1149800284AD55748007810
:10154000002846D157480078002842D154480078F6
:1015500000283ED1502E1ADA9DF80000012816D13D
:1015600000208DF80000701941F6637108560128BB
:1015700004D116F19F00022190FBF1F6701941F69B
:1015800063710856002802D1022096FBF0F6502E17
:101590001ADB9DF80000012816D100208DF800000C
:1015A000701941F61D710856012802D1022096FBE0
:1015B000F0F6701941F61D710856002804D116F195
:1015C0009F00022190FBF1F6B6F15000C0003749B0
:1015D000086032480078012802D1002033490860B1
:1015E0002D480078002805D00F9850380621484330
:1015F0002E4908602B480078022824D1502E10DB99
:101600007FF08B00294908604FF40C720321002001
:1016100000F0FDF940F2B6320521002000F0F7F9A4
:101620000EE08C20214908604FF40C720521002047
:1016300000F0EDF940F2B6320321002000F0E7F9A6
:1016400001201849087016480078012804D10E9826
:101650005038C0001549086011480078022804D1AC
:101660000E985038C000114908600D4800780328D2
:1016700004D10E985038C0000C4908600948007821
:101680008DF8260030008DF8270000202B900748A9
:10169000006869B0BDE8F08F9E3BFF1F9B3BFF1FBA
:1016A0009D3BFF1F9A3BFF1F9C3BFF1F700EFF1FC0
:1016B000002848BF4042704738B504000D0064B2AE
:1016C000002C06D0022C69D04CD3032C00F0828071
:1016D000C7E0DFF85404006850F08070DFF8481469
:1016E00008606DB2002D0BD0022D15D00ED3042D45
:1016F0001ED017D3062D27D020D3072D2AD02FE0B8
:101700004FF48061412000F01BFA2AE04FF4407151
:10171000042000F015FA24E04FF44071052000F099
:101720000FFA1EE04FF44071062000F009FA18E0AD
:101730004FF44071072000F003FA12E04FF480618B
:10174000652000F0FDF90CE04FF48061662000F0A8
:10175000F7F906E04FF48061672000F0F1F900E04E
:101760007FE07EE0DFF8C003006850F00070DFF833
:10177000B81308606DB2002D02D0012D06D00BE029
:101780004FF440710C2000F0DBF906E04FF440719B
:101790000D2000F0D5F900E063E062E0DFF88C0393
:1017A000006850F08070DFF8841308606DB2002D7F
:1017B00002D0012D06D00BE04FF440710A2000F05A
:1017C000BFF906E04FF440710B2000F0B9F900E0DA
:1017D00047E046E0DFF85403006850F00070DFF89F
:1017E0004C1308606DB2002D0BD0022D15D00ED316
:1017F000042D1ED017D3062D27D020D3072D2AD095
:101800002EE04FF4C061852000F09AF928E04FF4F3
:10181000C061862000F094F922E04FF4C061872077
:1018200000F08EF91CE04FF4C061882000F088F9C8
:1018300016E04FF4C061892000F082F910E04FF407
:10184000C0618A2000F07CF90AE04FF4C0618B206F
:1018500000F076F904E04FF4C0618C2000F070F9DC
:10186000FFE731BD2DE9F84F04000D0016001F0001
:1018700064B2002C11D064B2012C02D064B2022CEC
:1018800002D16DB2022D08DB64B2032C05D040F208
:101890008511DFF89C0200F0C0F9290049B2200050
:1018A00040B2FFF709FFDFF88C0200684FF47A714D
:1018B000484380465FEA1840B0FBF6F081460020BE
:1018C00082461FFA89F959FA0AF0012802DB1AF157
:1018D000010AF6E75FFA8AFABAF1080F05DB4FF45E
:1018E000D071DFF84C0200F098F938FA0AF0B0FB3A
:1018F000F6F081461FFA89F9DFF83C0264B240F83D
:10190000249064B2002C05D0022C1AD00ED3032CE4
:1019100022D02DE01FFA89F919F1010000FB07F030
:101920004FF47A71B0FBF1F0834621E01FFA89F998
:1019300019F1010000FB07F06421B0FBF1F08346D0
:1019400016E01FFA89F919F1010000FB07F0642184
:10195000B0FBF1F083460BE01FFA89F919F10100A1
:1019600000FB07F042F21071B0FBF1F08346FFE795
:10197000DFF8C80164B250F824006DB210EBC50066
:10198000DFF8B81164B251F824106DB211EBC50143
:10199000C96831F00401C160DFF8A00164B250F8F9
:1019A00024006DB210EBC5002821C1605FFA8AFAED
:1019B0001AF0070050F00800DFF8801164B251F807
:1019C000241008601FFA89F9DFF8700164B250F83A
:1019D0002400C0F808900020DFF8601164B251F8CC
:1019E0002410C864DFF8540164B250F824006DB2CA
:1019F00010EBC5001FFA8BFBC0F810B00020DFF819
:101A00003C1164B251F824104860BDE8F18F2DE913
:101A1000F04104000D0016005FF0000864B2002CD5
:101A200011D064B2012C02D064B2022C02D16DB28A
:101A3000022D08DB64B2032C05D04FF4F371DFF8FC
:101A4000F00000F0EAF864B2002C05D0022C16D0A9
:101A50000CD3032C1CD026E0B6F57A7F05D94FF4C1
:101A6000F671DFF8CC0000F0D8F81CE0652E05D345
:101A70004FF4F871DFF8B80000F0CFF813E0652EEE
:101A800005D34FF4FA71DFF8A80000F0C6F80AE0B9
:101A900042F21170864205D340F2F911DFF890004E
:101AA00000F0BBF8FFE7DFF8900064B250F82400C4
:101AB000804664B2002C05D0022C16D00CD3032C27
:101AC0001CD025E018F1010000FB06F04FF47A71FC
:101AD000B0FBF1F007001BE018F1010000FB06F07D
:101AE0006421B0FBF1F0070012E018F1010000FBE7
:101AF00006F06421B0FBF1F0070009E018F10100E5
:101B000000FB06F042F21071B0FBF1F00700FFE7B6
:101B1000DFF8280064B250F824006DB210EBC50065
:101B20000761BDE8F08100003C8004403080044043
:101B3000E85A0000403BFF1F283BFF1F1C0BFF1F04
:101B400010B4294A12684FF40073C0B24409A3408C
:101B50001A43254B1A60254AC0B2431152F823207C
:101B6000012310F01F04A340C2F8A0301F4AC0B2E6
:101B7000431152F82320C0B210F01F0342F8231083
:101B800010BC704710B4184A12684FF40073C0B20A
:101B90004409A3401A43144B1A60144AC0B24311BB
:101BA00052F82320012310F01F04A340C2F8A030F4
:101BB00031F4E0610D4AC0B2431152F82320C0B2A3
:101BC00010F01F0352F8232012F4E0621143074A79
:101BD000C0B2431152F82320C0B210F01F0342F8E4
:101BE000231010BC70470000388004409C0BFF1F7E
:101BF000DFF800F0B10CFF1FDFF800F0D50CFF1F7D
:101C0000BFF34F8F4648006810F4E0604549084331
:101C100043490860BFF34F8FFEE738B504000D005D
:101C2000002000F08DF82A0021003F4800F0C0F8A5
:101C3000002000F0A2F84FF47A7000F0E6F8F2E726
:101C400038B504000D00210049B2042000F000FA6C
:101C5000200032BD10B50024042000F025FA042035
:101C600000F058FA002841D1002000F069F8042063
:101C700000F050FA012801D101200400002000F0FA
:101C80007CF82A4800F094F84FF4FA7000F0BDF8A0
:101C9000E4B2012CEBD1042000F03CFA0028E6D19C
:101CA000042000F037FA002806D1002000F065F883
:101CB000642000F0AAF8F3E7042000F02BFA0128D2
:101CC00006D1002000F059F8322000F09EF8F3E72A
:101CD000174800F06DF8FFF78BFF642000F095F8CF
:101CE0000020FFF789FFFFF78BFFC0E710BD10B59D
:101CF00010480468012000F023F8012000F03DF8AE
:101D00000D48E4B20F2101FB0402E4B221000B48AC
:101D100000F04EF84FF47A7000F077F8EDE700002D
:101D20000CED00E00400FA05E85B0000505D0000E7
:101D3000645C000004ED00E01404FF1F245A00005E
:101D400010B5040064B2042C07DA012201211748FF
:101D500064B2205C00F0F6F90EE0042004002000DC
:101D6000441E40B2002807D0012201210F4864B26E
:101D7000205C00F0E7F9F2E710BD10B5040064B292
:101D8000042C05DA094864B2205C00F032FA0CE059
:101D9000042004002000441E40B2002805D003485F
:101DA00064B2205C00F025FAF4E710BDD00BFF1FF1
:101DB0000EB400B582B003A90091024600AB012128
:101DC000034878440A3000F051FA06BC5DF810FB75
:101DD0005D3F000010B50400002C15D0B4F1807FE9
:101DE00003D329210F48FFF718FF00200E49086090
:101DF0000E48046000200E49086005200A4908606A
:101E000009480068C003FBD510BD10B504002000D0
:101E1000441E002804D007480068FFF7DBFFF6E700
:101E200010BD0000605A000010E000E014E000E087
:101E300018E000E0383BFF1F2DE9F84304000D00D7
:101E400064B2002C08D0022C2CD018D3042C4FD014
:101E50003BD3052C5FD071E0DFF83402006850F40A
:101E60008060DFF82C1208604FF440716620FFF7A5
:101E700067FE4FF440716720FFF762FE5EE0DFF817
:101E80001002006850F40060DFF8041208604FF49C
:101E900040714320FFF754FE4FF440714420FFF798
:101EA0004FFE4BE0DFF8E801006850F48050DFF8A7
:101EB000E01108604FF440716320FFF741FE4FF4DA
:101EC00040716220FFF73CFE38E0DFF8C401006893
:101ED00050F40050DFF8B81108604FF44071502002
:101EE000FFF72EFE4FF440715120FFF729FE25E049
:101EF000DFF8A001006850F48060DFF898110860F6
:101F00004FF440714E20FFF71BFE4FF440714F20FD
:101F1000FFF716FE12E0DFF87C01006850F4006065
:101F2000DFF8701108604FF440718920FFF708FE58
:101F30004FF440718820FFF703FEFFE7DFF85801F8
:101F400064B250F82400C07810F0F300DFF84811B4
:101F500064B251F82410C870DFF83C0164B250F844
:101F600024008078DFF8301164B251F824108870B2
:101F700064B2002C02D064B2012C07D1DFF81C013E
:101F800000684FF47A714843814606E0DFF810019B
:101F900000684FF47A71484381462801B9FBF0F09C
:101FA0000600B6B2B6F5005F02DB41F6FF70060030
:101FB000B9FBF5F0B6B2B0EB06100700BFB2202FA8
:101FC00003DBDC213748FFF728FE334864B250F8C2
:101FD0002400007810F0E0008046B6B2300A10F01D
:101FE0001F0050EA08002C4964B251F82410087010
:101FF000294864B250F824004670274864B250F86B
:102000002400807A10F0E000804617F01F0050EAAC
:102010000800214964B251F8241088721E4864B245
:1020200050F82400007C50F088001B4964B251F83D
:1020300024100874184864B250F82400C07850F096
:102040000C00154964B251F82410C870BDE8F18342
:10205000114A40B252F8202012791206F8D50E4AE1
:1020600040B252F82020D171704770B504000D00C5
:1020700016003000461E002808D095F9001049B21D
:10208000200040B2FFF7E4FF6D1CF2E770BD0000D6
:102090003480044028800440B00BFF1F383BFF1FF2
:1020A000403BFF1F6C5B000010B5040064B2082CBD
:1020B0000DDA00220021224864B2205C00F042F8D0
:1020C00003211F4864B2205CFFF75CFD14E0082088
:1020D00004002000441E40B200280DD00022002140
:1020E000174864B2205C00F02DF80321144864B254
:1020F000205CFFF747FDECE710BD10B50400104869
:1021000064B2205C00F091F8002801D1002000E0CA
:10211000012010BD10B50400200040B2FFF7EDFF14
:1021200000280AD10A20FFF770FE200040B2FFF716
:10213000E4FF002801D1002000E0012010BD0000D4
:10214000C80BFF1F70B504000D0016004FF480711E
:102150002000C0B2FFF7F4FC6DB2002D11D1414850
:10216000E4B2611150F821003E49E4B2621151F825
:1021700022104969012214F01F039A4091434161E2
:1021800036E03848E4B2611150F821003549E4B234
:10219000621151F822104969012214F01F039A407C
:1021A00011434161F6B2002E11D12E48E4B2611103
:1021B00050F821000068012114F01F02914088436B
:1021C0002849E4B2621151F82210086010E0254855
:1021D000E4B2611150F821000068012114F01F02DF
:1021E000914008431F49E4B2621151F8221008607F
:1021F00070BD10B504001B48E4B2611150F8210015
:10220000406914F01F01C840C00703D47B21164861
:10221000FFF703FD1348E4B2611150F821000121DA
:1022200014F01F029140C16010BD10B504000D48AC
:10223000E4B2611150F82100406914F01F01C84058
:10224000C00703D58C210848FFF7E7FC0548E4B236
:10225000611150F82100006914F01F01C84010F00E
:10226000010010BD2C0BFF1F145B00002DE9F04F87
:10227000A1B08246002017461D4602910B900DF139
:10228000440B6FF000490AE017F8011B0298D04791
:102290000290002800F0A3820B98401C0B90387825
:1022A00008B90B989DE22528EED1002005900690F4
:1022B0000790089009900A9001E040F0010017F89B
:1022C000011F2029F9D023290DD02B2904D02D2935
:1022D00006D030290AD00CE040F0020080B2EEE7D0
:1022E00040F00400FAE740F00800F7E740F0100083
:1022F000F4E72A290ED12968296051F8042B2960B6
:102300000D92002A04D5514240F004000D9180B294
:102310007F1C11E000210D9109E00D99494505D080
:1023200001EB810302EB430130390D917F1C3A78B8
:10233000A2F130010A29F0D339782E2903D04FF0C9
:10234000FF310C911DE017F8011F2A2907D12968D8
:1023500029607F1C51F8042B29600C9211E00021A8
:102360000C9109E00C99494505D001EB810302EB82
:10237000430130390C917F1C3A78A2F130010A29CF
:10238000F0D3ADF838000FF6B820397800F076FDBC
:1023900008B117F8010B8DF83A009DF83A0068284B
:1023A00002BF39786829622005D06C2804BF3878CC
:1023B0006C2803D171208DF83A007F1C11A804907D
:1023C00017F8014BB4F1250024D02038022840F240
:1023D000C680133800F0EC800B3800F05081401EAE
:1023E00000F02581401E022840F2B980001F00F055
:1023F0001E81401F00F08480401E00F0D980401EE6
:1024000029D0C01E0CD0801E00F0D280C01E00F06B
:10241000CF803EE10120059025208DF8440044E165
:102420002868286050F8044B28600394DDF8308059
:10243000B8F1000F04D5204600F02CFD804607E0DF
:1024400042460021204600F041FD08B1A0EB0408FF
:10245000CDF8188029E1296829604FF03C0851F82F
:10246000040B29600021CDE9000111A80390DDE9EA
:102470000001049C11B908B90C9ACAB10206120FE6
:10248000A0EB02123032A8F1010ED2B2F0463A2A85
:10249000A8BF273200090EF8042040EA017009099C
:1024A00008BF002804D0039A08EB04039A42E5D33E
:1024B00008EB04000390C8F13C010C98069181429E
:1024C00009DA401A08904FF6EF71BDF8380008405D
:1024D000ADF83800E9E0002840F1E7809DF83800C9
:1024E00000F01400102840F0E0800D98059A801A42
:1024F000089A801A401A0128C0F2D7800890D4E0C8
:102500009DF83A0062281AD0682806D06A280CD0B4
:102510006C281CD0712808D019E02868286050F871
:10252000041B28600B980880BFE02868286050F8DA
:10253000042B28600B98C117C2E90001B5E0286898
:10254000286050F8041B28600B980870ADE02868DC
:10255000286050F8041B28600B980860A5E02868E4
:10256000C01D20F007022A60D2E9000108322A606B
:10257000CDE90001002903D5012005902D200CE0B4
:10258000BDF83800810703D5012005902B2004E019
:10259000C00704D50120059020208DF8440005993E
:1025A00011A808180390214600A800F0D7F97CE094
:1025B0009DF83A206C2A0DD0712A18BF6A2A09D1D9
:1025C0002868C01D20F007032B60D3E90001083301
:1025D0002B6005E02968296051F8040B296000216F
:1025E000CDE90001682A08BF80B207D0622A08BF7F
:1025F000C0B203D0742A18BF7A2A02D10021CDE9D3
:1026000000019DF83800000730D5DDE90001002900
:1026100008BF00282AD044F02000782826D1302096
:102620008DF844008BF80140022005901EE02946F9
:102630009DF83A0000F0D8F8CDE90001002904DA4D
:102640000598411C05912D210EE0BDF83800810749
:1026500004D50598411C05912B2105E0C00705D53F
:102660000598411C0591202100F80B10059911A82F
:1026700008180390214600A800F0EDF815E00120AD
:1026800005902868286050F8041B28608DF84410D5
:102690000BE00120059025208DF84400002C04D08B
:1026A0000598411C059100F80B400D980599401ABA
:1026B0000899401A0699401A0999401A0799401A30
:1026C0000A99A0EB01089DF8380040070FD420209C
:1026D0008DF84000002408E0012310AA00A950460C
:1026E00000F097FB00287AD1641C4445F4DB059C7C
:1026F00011AE0AE016F8011B0298D047029000289C
:102700006DD00B98401C0B90641E002CF2D1302031
:102710008DF840000026089C08E0012310AA00A9BB
:10272000504600F076FB002859D1761CA642F4DB17
:10273000069C039E0AE016F8011B0298D0470290FF
:1027400000284CD00B98401C0B90641E002CF2D13A
:1027500030208DF840000026099C07E0012310AAD4
:1027600000A9504600F055FBC8BB761CA642F5DB1D
:1027700003980699079C0E1809E016F8011B0298A9
:10278000D047029058B30B98401C0B90641E002C4D
:10279000F3D130208DF8400000260A9C07E0012389
:1027A00010AA00A9504600F034FBC0B9761CA6421E
:1027B000F5DB9DF8380040077FF571AD20208DF8DE
:1027C0004000002400E0641C4445BFF668AD0123CE
:1027D00010AA00A9504600F01CFB0028F3D04FF0CF
:1027E000FF3021B0BDE8F08F622826D068281DD0C8
:1027F0006A2808D06C2827D0712804D0742823D0E8
:102800007A280CD020E00868C01D20F0070008607E
:10281000D0E90023083008601946104670470A685E
:102820000A6052F8040B0A60002170470A680A60C7
:1028300052F8040B0A6000B20BE00A680A6052F812
:10284000040B0A6040B204E00A680A6052F8040B04
:102850000A60C11770472DE9FA4E05460A462F69EE
:102860006F2A08BF082405D041F02000782814BF43
:102870000A241024D5E900013C2681468A46642AB0
:1028800018BF692A05D1002903DAD9F100096AEBDA
:102890004A0ABAF1000F08BFB9F1000F0CD1286B3A
:1028A00050B9082C36D195F83800000732D53020C1
:1028B0003B2687F83B002DE0E31748465146224669
:1028C00000F030FBA4FB0023A9EB02023032A6F19A
:1028D000010BD2B25E463A2A03DB9DF80030513B31
:1028E0009A180BF8072081465FEA010A08BFB9F180
:1028F000000F03D0E868F1198842DDD3082C09D114
:1029000095F83800000705D5F05D302802D0761E16
:102910003020F055C6F13C00A861F119E960296B3F
:10292000884208DA081A28624FF6EF71288F0840AB
:102930002887BDE8F38E00290ED595F8381001F0F0
:102940001401102908D1696B6A69891A2A6A891ADF
:10295000081A0128A8BF2862BDE8F38E2DE9F34FBD
:102960008BB0D0E90089006B01AF002848BF06207A
:1029700005D404BF41F02000672802D101200B9943
:10298000086340F2FF720B984168C1F30A5090420D
:1029900020D1080302BF0B98006800280AD10B99C8
:1029A000032088619DF8300061381A2858D30FF24F
:1029B000A44109E00B99032088619DF8300061383B
:1029C0001A284AD30FF284410B98C068032200F002
:1029D00021FB00E1012807DA0B9800F056FB0128E3
:1029E00002DB00230026EDE00B9A526840F2FE3134
:1029F00061F31E520B994A6040F2FE31461A40467E
:102A000049460022002300F061FB38BF89F00049ED
:102A100036B247F2975070434949DFF828B190FB2E
:102A2000F1F636B2C6F107079246012F1BDBF80715
:102A300007D552465B464046494600F05FFB80465C
:102A400089467F105046594652465B4600F056FB79
:102A500082468B46002FEAD126E00FF2EC31B3E735
:102A60000FF2EC31B0E77F420024374D12E0F80757
:102A700007D552465B462046294600F03FFB0446F8
:102A80000D467F105046594652465B4600F036FBD5
:102A900082468B46002FEAD14046494622462B46C5
:102AA00000F0FEFB804689469DF8300040F020058E
:102AB000662D0CBF06F10A0006200B99096B47181A
:102AC000142FA8BF132730208DF804000DF1050442
:102AD000DFF878B0012F3BDB4046494600F004FDAB
:102AE000014604F1080204234FF00A0CB1FBFCFC80
:102AF0000CEB8C04A1EB4401303102F8011D0A21DA
:102B0000BCFBF1FE0EEB8E04ACEB4404303471469A
:102B100002F8014D5B1EE7D1083F02F10804012FC6
:102B2000D8DB00F0F7FC02460B464046494600F071
:102B3000FFFC00225B4600F0E1FA80468946CBE7C5
:102B4000A0860100000024400000F03F84D7974198
:102B50000DF10500201A0DF1050702E0401E761E5A
:102B60007F1C39783029F9D0662D02D136B2711C1C
:102B700003E0652D0CBF012100210B9A126B8B180D
:102B80001BB29842B8BF03461BB219001AD4814247
:102B900004DAC85D3528A8BF392000DA3020CA1908
:102BA000521E00E05B1E12F80159491E8542F9D001
:102BB000392802D1C85D401CC855002902D57F1EA6
:102BC0005B1C761C36B29DF830100B9800961BB239
:102BD0003A4600F003F80DB0BDE8F08F2DE9F0475C
:102BE00086B006468A4690461D4600F07EFD406A45
:102BF000376B90F80090012D02DA01250FF258286A
:102C00004AF02000BDF93840662808BF641C13D084
:102C1000672840F0888014F1040F73DBBC4271DA3E
:102C200096F83800641C000702D4BD42B8BF2F4696
:102C300024B23F1B48BF0027F068B16924B2012CC1
:102C400021DA30234A1C0B54012F03DA96F838108E
:102C5000090702D502F80090521CB261E742B8BFE2
:102C60007C4224B26142E7197162AF42B8BF3D466F
:102C70002DB2F5612A46B3694146181800F0CAF929
:102C8000781BB062AEE00818A54216DA2A46414623
:102C900000F0C0F9B1696918B161601B7062012F61
:102CA00003DA96F83800000705D5F06801F80090BF
:102CB000F069401CF061B76294E02246414600F0A2
:102CC000A9F9B06920182D1B012F03DA96F83810E6
:102CD000090703D5F16800F80190401C2DB2B061DE
:102CE000AF42B8BF3D46F068B3692DB22A4604EB47
:102CF0000801181800F08EF9B0692818B061781B27
:102D000070626FE0BD4204DA96F83810090758BFC8
:102D10002F467F1E48BF0027BAF1670F0CBF4FF048
:102D2000650A4FF0450AB169F06818F8013B0B5489
:102D30004A1C012F05DA96F83810090758BFB2610E
:102D400015D502F80090531CB361012F0FDB6D1EE7
:102D50002DB2AF42B8BF3D462DB22A4641461818A3
:102D600000F058F9B0692818B061781B7062F068FB
:102D7000B16901EB0008200008F801AB03D42B2057
:102D800008F8010B03E02D2108F8011B644200251F
:102D900002AF08E00A2200A800F0C0FC019807F882
:102DA000010B6D1C009C21B20129F3DA022D06DA19
:102DB0004AF02000652804BF302008F8010B4DB907
:102DC000302008F8010B07E06D1E02A8285C3030A7
:102DD00008F8010B012DF7DAF068B1690818A8EBC3
:102DE0000000F06196F8380000F0140010280DD1B2
:102DF0007069B1690818716A0818F1690818B16A30
:102E00000818716B8842BCBF081A306206B0BDE872
:102E1000F087F8B504460D4616461F46002004E02C
:102E2000E86A401CE8627F1E002047B116F8011BCB
:102E3000A868A047A8600028F2D14FF0FF30F2BD8B
:102E4000686A6C747A4C00006E616E004E414E00F0
:102E5000696E6600494E4600300050F8041B61B1AF
:102E600050F8042BD30744BFA9F101039A1800239B
:102E700042F8043B091FFAD1EFE770470278C9B264
:102E80008A421AB11CBF10F8012FF9E718BF0020C1
:102E90007047010000F10103810704D010F8011B05
:102EA00089B18107FAD10268B2F10131914311F081
:102EB000803F04BF50F8042FF6E710F8011B11B152
:102EC00010F8011BFBE7C01A704703FCC9B2830767
:102ED00006D0521E22D310F8013B9942F7D11FE0D1
:102EE000083A13D302F1040241EA012141EA014107
:102EF00050F8043B121F21BF4B40A3F1013C2CEAC8
:102F0000030C1CF0803FF3D0C9B2001F083210F848
:102F1000013B521E28BF91EA030FF8D818BF0120C9
:102F2000401E70471B4213D1094236D12AB1844654
:102F3000B0FBF2F002FB10C2704700F0F7BBFCD30D
:102F40000022002370470B00020000210020704780
:102F5000904271EB030CF6D370B5B1FA81F4B3FA79
:102F600083F52C1BA340C4F1200532FA05F6334348
:102F7000A2405FF00046E64002E05B085FEA3202F2
:102F8000841A71EB030524BF204629467641F4D309
:102F900002000B003000002170BD012ACFD970B5AE
:102FA000140C20D0B1FA81F4B2FA82F5C4F12004F5
:102FB0006419B4F12006D6D3B2405FF00044F44067
:102FC000002502E052085FEA3303C61A71EB020ED5
:102FD00024BF3046714664416D41F3D302000B00BB
:102FE0002000290070BD0C46B1FBF2F102FB114537
:102FF0002D0445EA1045B5FBF2F402FB145580B2EE
:1030000040EA0545B5FBF2F002FB105240EA0440ED
:1030100070BDFC0362B38B0708D0521E11F8013B50
:1030200000F8013B00F024808B07F6D1830740F0C5
:10303000208000BF103A07D330B4B1E83810103AFE
:10304000A0E83810F9D230BC530724BFB1E808100B
:10305000A0E8081044BF51F8043B40F8043BD207F5
:1030600024BF31F8022B20F8022B44BF0B780370E9
:103070007047083A07D3B1E80810083A40F8043B13
:1030800040F804CBF7D25307E4E730B4436803F0C9
:10309000004201211B031B0B436004BF0368002B8C
:1030A00008D10DE00368DD0F45EA440444605B008D
:1030B0000360491E4468E302F4D523031B0B4360FD
:1030C00043681A434260084630BC70474FF4001C06
:1030D0001CEB410F94BF1CEB430F09E041EA030CCA
:1030E00050EA4C0C52EA0C0C03D2994208BF9042B1
:1030F000704714BF8B42824270470000B0B581EA2E
:10310000030C0CF0004C40F2FF7515EA11541DBF82
:1031100015EA1357AC42AF4239E0E41923EA4553AC
:1031200043F48013C90241F0004141EA505EC702F6
:103130001100A7FB020200284FF00000EEFB012067
:103140004FF00001E3FB072118BF42F001024018D5
:1031500000214941E3FB0E01A4F580640F0302D274
:1031600052004041494154F101046CDD470872F1BD
:10317000004250F1000051EB0451A1F580115CBFF9
:1031800041EA0C01B0BD4CEA05510020B0BD05EA92
:103190001357AC4214BFAF4241E050EA410E1CBF8E
:1031A00052EA430E02E061460020B0BD24423C4496
:1031B0001BD15FEA070EF6D0090302BF01460020CB
:1031C000AEF1140EB1FA81F7AEEB070401FA07FE77
:1031D0000C37C7F1200100FA07F7C8404EEA000E8D
:1031E00023EA455343F48013A2E733F00043B3FAD4
:1031F00083F704BFB2FA82FE77440B3FE41BB7F1BA
:10320000200E2FBF02FA0EF3BB40C7F1200E22FAA8
:103210000EFE38BF43EA0E03BA40641C82E750EA50
:10322000410E14BF52EA430E6FF000014FF4001735
:1032300017EB430F8ABF194617EB410FB5E74CEA6E
:1032400005510020B0BDD4F10104B4F120070FDA1C
:10325000C4F12007520828BF42F0010210FA07F516
:1032600001FA07F7E1BF2A43E0403843E1400FE0AD
:10327000352C98DCC7F1200452EA400220FA07F20C
:1032800018BF42F0010231FA07F0A1400A430021C1
:1032900072F1004250F1000051EB0C01B0BD000092
:1032A000F0B540F2FF7581EA030C0CF0004C15EA12
:1032B00011541DBF15EA1357AC42AF42E5E0BC41C3
:1032C000C1F31301C3F31303801A994143F480132C
:1032D00004D2641E4000494180185941C90241EAA4
:1032E0005051B1FBF3F603FB1611A2FB0675D7EBA9
:1032F000C020A94102D2761E80185941C90241EA74
:103300005051B1FBF3FE03FB1E11A2FB0E75D7EB70
:10331000C020A94103D2AEF1010E801859418902A3
:1033200041EA9051760546EA8E2EB1FBF3F603FB97
:103330001611A2FB0675D7EB8020A94102D2761E9A
:1033400080185941C90241EA50514EEA060EB1FBBC
:10335000F3F603FB1611A2FB0675D7EBC020A941BB
:1033600002D2761E80185941C90241EA5051B1FB80
:10337000F3F703FB1711A2FB0735D3EBC020A941DC
:1033800067F100070CBF004247F0010766F3D5273D
:103390004FEA1E31B80814F5806412DDBD0775F1DF
:1033A000004250EB0E5051EB045111F5801F5CBFF1
:1033B00041EA0C01F0BD4CF07F6141F0E04100209A
:1033C000F0BDBD076D0840EA0E5041F48011D4F104
:1033D0000104B4F120060ADAC4F120060200E0403C
:1033E00001FA06F3E1401843B24015430EE0342CD5
:1033F00013DCC6F1200445EA40056D0820FA06F208
:10340000154321FA06F0A1400D43002175F1004259
:1034100050F1000051EB0C01F0BD00205FEA0C01FF
:10342000F0BDCFB992185B41B3FA83F704BFB2FA8B
:1034300082F6BF190B3FB7F120062FBF02FA06F341
:10344000BB40C7F1200622FA06F638BF3343BA4024
:103450001CB1E419641E33E77F4231F00041B1FA38
:1034600081F404BFB0FA80F6A4190B3CB4F1200635
:103470002FBF00FA06F1A140C4F1200620FA06F69B
:1034800038BF3143A0403C1B1AE7AC421ABF05EAE3
:103490001357AF4212E050EA41061CBF52EA4306FE
:1034A000BFE750EA4107304661461CBF41EA05517B
:1034B000F0BD52EA430C08BFC143F0BD00204FF4F9
:1034C000001616EB410F98BF16EB430F08BF16EB23
:1034D000410F24BFC14305E016EB430F0CBF61460B
:1034E0004CEA0551F0BD0000400D40EAC120490002
:1034F00080F00D8040F00040490DA1F58061491C2D
:1035000005D4D1F11F0154BFC840C01770474FF018
:1035100000007047010000BF09D0B0FA80F1884078
:10352000C91CC1F58461090501EBD0214005704734
:1035300070B44FF0004591EA030F44BF6B4000F0B8
:10354000F7B800BF841A71EB030604D26E40001B6B
:10355000B141121973414FF4001C1CEB410F34BFF1
:103560007CEB430684E00C0DA4EB1356362E7DDC79
:10357000012E43DC45EAC32343EA525312BFD20271
:1035800092025B08240545EAC12141EA5051D2EB81
:10359000C020994125D407D1B0FA80F610FA06F17F
:1035A00064D00020203608E0B1FA81F6B140C6F1BF
:1035B000200220FA02F21143B0404FEAF474B4EB57
:1035C000465434F001064FEA74040AD8D6F50016C2
:1035D000760D04F00044F04061FA06F25040F140EC
:1035E0004840C00A40EA415021F0004128BF5FEA4C
:1035F000500550F1000044EBD12137E045EAC323E8
:10360000DB0A45EAC121C90AB6F120050EDD42EA0E
:103610000242120CC5F1200603FA06F6EB4042EA1C
:1036200006056D42984161F100010DE062FA06F570
:10363000F240554063FA06FC82EA0C02F3405A401D
:103640006D42904161EB030111F4801F05D1641EAE
:10365000620502D06D004041494121F480114308C8
:1036600075F1004350F1000041EB045170BC70470C
:103670001CEB410F15D223F0004352EA43060BD056
:103680004FEA4C0CBCEB410F04D80C0D661E342ED7
:10369000B7DDEBE7801A994150EA410608BF0021E7
:1036A000E4E708BF1CEB430F28BF6FF00001DDE724
:1036B00080B5134800F0A6F80FF2480101604160A0
:1036C0008160C1600161416181610FF23C0242622F
:1036D0008162C162016341630FF2300282630FF2C3
:1036E0003402C2630164416401BD10B5044800F0B6
:1036F00089F80446206808B9FFF7DAFF204610BDB4
:10370000AC3BFF1F000000002E00000066616C73E0
:1037100065000000747275650000000091FBF2F313
:1037200003FB1211C0E90031704700007047000030
:10373000841A71EB030603D2001BB14112197341C5
:103740004FF4001C1CEB410F34BF7CEB430443E0FF
:103750000C0DA4EB1356352E50DC45EAC323DB0ACF
:1037600045EAC121C912B6F120050DDD63FA05F65F
:10377000EB4086EA0305124218BF45F00105C01868
:1037800051F100010CD213E062FA06F5F240554007
:10379000F3415A40B340F3405A408018594107D38F
:1037A00049085FEA30005FEA350528BF45F00105AA
:1037B00001F58011420875F1004250F1000041EB23
:1037C000045170BC4FF4001C1CEB410F38BF704714
:1037D0000020090D090570471CEB410F10D252EA79
:1037E00043060BD0BCEB410F05D80C0DAB43661E56
:1037F000342EB5DD02E0AB438018594170BC7047F0
:1038000070BC704770470000DA0200000000000042
:1038100000000000000000000000000000000000A8
:10382000000000000000000000004E6F6E4D61734C
:103830006B61626C650000000048617264466175EE
:103840006C740000000000004D656D4D616E616795
:10385000656D656E7400004275734661756C740029
:1038600000000000000055736167654661756C7467
:103870000000000000000000000000000000000048
:103880000000000000000000000000000000000038
:103890000000000000000000000000000000000028
:1038A0000000000000000000000000000000000018
:1038B00000535643616C6C000000000000000000E3
:1038C00044656275674D6F6E69746F720000000029
:1038D0000000000000000000000000000000506533
:1038E0006E6453560000000000000000005379731E
:1038F0005469636B0000000000000000444D41303B
:103900000000000000000000000000444D413100B4
:1039100000000000000000000000444D41320000A3
:10392000000000000000000000444D413300000092
:103930000000000000000000444D41340000000081
:1039400000000000000000444D4135000000000070
:10395000000000000000444D41360000000000005F
:103960000000000000444D4137000000000000004E
:1039700000000000444D413800000000000000003D
:10398000000000444D41390000000000000000002C
:103990000000444D413130000000000000000000F4
:1039A00000444D41313100000000000000000000E3
:1039B000444D41313200000000000000000000448E
:1039C0004D41313300000000000000000000444D74
:1039D00041313400000000000000000000444D416F
:1039E000313500000000000000000000444D415F40
:1039F0004572726F720000000000004D434D0000E0
:103A0000000000000000000000004654464C00008A
:103A1000000000000000000000526561645F436F19
:103A20006C6C6973696F6E004C56445F4C5657005E
:103A3000000000000000004C4C5700000000000097
:103A40000000000000005761746368646F67000045
:103A50000000000000524E4700000000000000007F
:103A60000000000049324330000000000000000068
:103A70000000004932433100000000000000000057
:103A8000000053504930000000000000000000001A
:103A90000053504931000000000000000000000009
:103AA00053504932000000000000000000000043B5
:103AB000414E305F4F525F4D425F62756600434139
:103AC0004E305F4275735F4F666600000043414EA3
:103AD000305F4572726F72000000000043414E304B
:103AE0005F54785F5761726E696E6743414E305F15
:103AF00052785F5761726E696E6743414E305F570F
:103B0000616B655F55700000005265736572766584
:103B1000643531000000000052657365727665649B
:103B20003532000000000043414E315F4F525F4D7F
:103B3000425F6275660043414E315F4275735F4F6D
:103B4000666600000043414E315F4572726F72003D
:103B50000000000043414E315F54785F5761726E40
:103B6000696E6743414E315F52785F5761726E698B
:103B70006E6743414E315F57616B655F5570000062
:103B80000052657365727665643539000000000087
:103B9000526573657276656436300000000000552A
:103BA000415254305F52585F545800000000554154
:103BB0005254305F455252000000000000554152FF
:103BC00054315F52585F5458000000005541525420
:103BD000315F4552520000000000005541525432FE
:103BE0005F52585F54580000000055415254325FF4
:103BF00045525200000000000055415254335F52BC
:103C0000585F54580000000055415254335F4552EC
:103C10005200000000000055415254345F52585F7A
:103C200054580000000055415254345F4552520030
:103C3000000000000055415254355F52585F5458FF
:103C40000000000055415254355F455252000000BB
:103C5000000000414443300000000000000000006C
:103C6000000041444331000000000000000000005B
:103C700000434D5030000000000000000000000034
:103C8000434D5031000000000000000000000043E0
:103C90004D503200000000000000000000004654BB
:103CA0004D30000000000000000000000046544DB0
:103CB00031000000000000000000000046544D32BA
:103CC0000000000000000000000000434D54000010
:103CD00000000000000000000000525443000000FB
:103CE00000000000000000000052657365727665F8
:103CF00064383300000000005049543000000000D8
:103D00000000000000000050495431000000000095
:103D10000000000000005049543200000000000084
:103D20000000000000504954330000000000000073
:103D3000000000005044423000000000000000007D
:103D40000000005553423000000000000000000059
:103D500000005553424443440000000000000000AE
:103D600000454E45545F313538385F54696D657292
:103D7000454E45545F5472616E736D697400004521
:103D80004E45545F52656365697665000000454E97
:103D900045545F4572726F72000000000049325353
:103DA00030000000000000000000000053444843C1
:103DB000000000000000000000000044414330000B
:103DC00000000000000000000000444143310000FA
:103DD00000000000000000000054534930000000C3
:103DE00000000000000000004D43470000000000FC
:103DF000000000000000004C5054696D6572000026
:103E00000000000000005265736572766564313011
:103E10003200000000504F525441000000000000EA
:103E200000000000504F525442000000000000000B
:103E3000000000504F5254430000000000000000FA
:103E40000000504F525444000000000000000000E9
:103E500000504F52544500000000000000000000D8
:103E60005265736572766564313038000000005227
:103E70006573657276656431303900000000526503
:103E800073657276656431313000000000526573ED
:103E900065727665643131310000000052657365EA
:103EA00072766564313132000000005265736572CC
:103EB00076656431313300000000526573657276B7
:103EC00065643131340000000052657365727665B7
:103ED00064313135000000005265736572766564A7
:103EE00031313600000000526573657276656431C9
:103EF00031370000000052657365727665643131B8
:103F0000380000000052657365727665643131399E
:103F100000000000008003400090034000800B4040
:103F200000900B4000F00F4040F00F4080F00F4039
:103F3000C0F00F4000F10F4066000A1D320007017B
:103F4000640007106E000406780004088200040A6A
:103F50008C00040C9600040EA0000410AA000412A9
:103F6000B4000414BE000416C8000418D200041AD9
:103F7000DC00041CE100041DE600041EEB00041F2D
:103F8000F4000317FA000318130101062C010214B0
:103F9000000109080090044000A0044000B0044063
:103FA00000C0044000D0044000A0064000B006401D
:103FB00000C0064000D0064000A00E4000B00E40F9
:103FC0006A6E6B6C676D4E4F3435363701000000FA
:103FD0000DC1110009030CD01240173F18501903EE
:103FE0001A783200A00A63E0ACFF650C6600670037
:103FF00029282C1E2A007E0C7F16802A814E826181
:10400000836F847B8586868E879788A489AF8AC5CF
:104010008BD78CE88D204A00491347084B144C1766
:10402000460522992303A6049B009C33AB069E11F0
:104030009F0200003100000002040101483BFF1F05
:10404000983BFF1F483BFF1F483BFF1F483BFF1F9C
:104050007D0CFF1F640CFF1F00000000000000002B
:104060000000000000000000000000000000000050
:1040700000000000000000002DE9F041ADF5A06D4A
:1040800004000D00A0A84FF4207100F067FA00A80A
:104090004FF4207100F062FA01200700FFB29F2F59
:1040A00080F28A8026200600F6B2A02000FB06409F
:1040B000FFB2381810F89F0CF6B2A02101FB0641A0
:1040C000FFB27918497849B210EB4100F6B2A0214D
:1040D00001FB0641FFB2791891F8A1100818F6B259
:1040E000A02101FB0641FFB2791811F8A11C401A6A
:1040F000F6B2A02101FB0641FFB2791811F8011CAC
:1041000049B2B0EB4100F6B2A02101FB0641FFB27B
:10411000791891F89F10401AA0A9FFB27854F6B20E
:10412000A02000FB0640FFB2381810F8A10CF6B230
:10413000A02101FB0641FFB2791811F8A01C49B279
:1041400010EB4100F6B2A02101FB0641FFB2791845
:1041500011F89F1C0818F6B2A02101FB0641FFB21E
:10416000791891F89F10401AF6B2A02101FB064180
:10417000FFB2791891F8A01049B2B0EB4100F6B245
:10418000A02101FB0641FFB2791891F8A110401A55
:1041900000A9FFB27854A0A8FFB23856FDF788FAFC
:1041A000804600A8FFB23856FDF782FA10EB0800EF
:1041B000FFB278557F1C71E701200700FFB29F2FE7
:1041C00080F294802C200600F6B2A02000FB06406E
:1041D000FFB2381810F89F0CF6B2A02101FB06417F
:1041E000FFB27918497849B210EB4100F6B2A0212C
:1041F00001FB0641FFB2791891F8A1100818F6B238
:10420000A02101FB0641FFB2791811F8A11C401A48
:10421000F6B2A02101FB0641FFB2791811F8011C8A
:1042200049B2B0EB4100F6B2A02101FB0641FFB25A
:10423000791891F89F10401AA0A9FFB2791881F857
:10424000A000F6B2A02000FB0640FFB2381810F81C
:10425000A10CF6B2A02101FB0641FFB2791811F8BA
:10426000A01C49B210EB4100F6B2A02101FB0641AF
:10427000FFB2791811F89F1C0818F6B2A02101FBB3
:104280000641FFB2791891F89F10401AF6B2A021AA
:1042900001FB0641FFB2791891F8A01049B2B0EBCA
:1042A0004100F6B2A02101FB0641FFB2791891F856
:1042B000A110401A00A9FFB2791881F8A000A0A8A7
:1042C000FFB2381890F9A000FDF7F2F9804600A877
:1042D000FFB2381890F9A000FDF7EAF910EB0800DA
:1042E000FFB2791981F8A0007F1C67E70120070061
:1042F000FFB29F2F80F2948032200600F6B2A020F9
:1043000000FB0640FFB2381810F89F0CF6B2A0214F
:1043100001FB0641FFB27918497849B210EB410020
:10432000F6B2A02101FB0641FFB2791891F8A11065
:104330000818F6B2A02101FB0641FFB2791811F866
:10434000A11C401AF6B2A02101FB0641FFB2791868
:1043500011F8011C49B2B0EB4100F6B2A02101FBFB
:104360000641FFB2791891F89F10401AA0A9FFB238
:10437000791881F84001F6B2A02000FB0640FFB298
:10438000381810F8A10CF6B2A02101FB0641FFB2CB
:10439000791811F8A01C49B210EB4100F6B2A02127
:1043A00001FB0641FFB2791811F89F1C0818F6B2FC
:1043B000A02101FB0641FFB2791891F89F10401A25
:1043C000F6B2A02101FB0641FFB2791891F8A010C6
:1043D00049B2B0EB4100F6B2A02101FB0641FFB2A9
:1043E000791891F8A110401A00A9FFB2791881F844
:1043F0004001A0A8FFB2381890F94001FDF758F924
:10440000804600A8FFB2381890F94001FDF750F936
:1044100010EB0800FFB2791981F840017F1C67E7B3
:1044200001200700FFB29F2F80F294803A200600FF
:10443000F6B2A02000FB0640FFB2381810F89F0C1F
:10444000F6B2A02101FB0641FFB27918497849B2C2
:1044500010EB4100F6B2A02101FB0641FFB2791832
:1044600091F8A1100818F6B2A02101FB0641FFB295
:10447000791811F8A11C401AF6B2A02101FB0641DF
:10448000FFB2791811F8011C49B2B0EB4100F6B245
:10449000A02101FB0641FFB2791891F89F10401A44
:1044A000A0A9FFB2791881F8E001F6B2A02000FBC4
:1044B0000640FFB2381810F8A10CF6B2A02101FB9B
:1044C0000641FFB2791811F8A01C49B210EB410067
:1044D000F6B2A02101FB0641FFB2791811F89F1C2A
:1044E0000818F6B2A02101FB0641FFB2791891F835
:1044F0009F10401AF6B2A02101FB0641FFB27918C5
:1045000091F8A01049B2B0EB4100F6B2A02101FB36
:104510000641FFB2791891F8A110401A00A9FFB224
:10452000791881F8E001A0A8FFB2381890F9E001ED
:10453000FDF7BEF8804600A8FFB2381890F9E001F8
:10454000FDF7B6F810EB0800FFB2791981F8E00129
:104550007F1C67E70DF5A06DBDE8F081002200F03B
:1045600001B8000000B500BF13009646944610390C
:1045700028BFA0E80C50FAD85FEA417C28BF0CC0E5
:1045800048BF40F8042BC90728BF20F8022B48BFBA
:1045900000F8012B00BD0000DFF800F0210EFF1F26
:1045A000DFF8B41340B231F8201040B20128C0F255
:1045B000788140B2162880F274810022DFF89C33A3
:1045C0001A7089B2652904DA0022DFF890335A7034
:1045D0007DE089B2C92904DA0122DFF880335A70FC
:1045E00075E089B2B1F5967F04DC0222DFF86C3306
:1045F0005A706CE089B2B1F5C87F04DC0322DFF8A1
:104600005C335A7063E089B2B1F5FA7F04DC0422AE
:10461000DFF848335A705AE089B2B1F5167F04DCEE
:104620000522DFF838335A7051E089B2B1F52F7F97
:1046300004DC0622DFF824335A7048E089B2B1F571
:10464000487F04DC0722DFF814335A703FE089B258
:10465000B1F5617F04DC0822DFF800335A7036E0E0
:1046600089B2B1F57A7F04DC0922DFF8F0325A70A2
:104670002DE089B240F24D42914203DA0A22B74B53
:104680005A7024E089B2B1F5966F03DC0B22B34B6C
:104690005A701CE089B240F21552914203DA0C22A2
:1046A000AE4B5A7013E089B2B1F5AF6F03DC0D2247
:1046B000AA4B5A700BE089B240F2DD52914203DA04
:1046C0000E22A64B5A7002E00F22A44B5A7089B2F8
:1046D000332903DA0022A14B9A7071E089B265296F
:1046E00003DA01229D4B9A706AE089B2972903DAB6
:1046F00002229A4B9A7063E089B2C92903DA032235
:10470000964B9A705CE089B2FB2903DA0422934B42
:104710009A7055E089B2B1F5967F03DC05228F4B84
:104720009A704DE089B2B1F5AF7F03DC06228B4B66
:104730009A7045E089B2B1F5C87F03DC0722874B48
:104740009A703DE089B2B1F5E17F03DC0822834B2A
:104750009A7035E089B2B1F5FA7F03DC09227F4B0C
:104760009A702DE089B240F22722914203DA0A22A0
:104770007A4B9A7024E089B2B1F5167F03DC0B22E4
:10478000764B9A701CE089B240F28B22914203DA98
:104790000C22724B9A7013E089B2B1F52F7F03DCC3
:1047A0000D226E4B9A700BE089B240F2EF229142DB
:1047B00003DA0E22694B9A7002E00F22674B9A705F
:1047C00089B21A2903DA0022644BDA7069E089B2EF
:1047D000332903DA0122614BDA7062E089B24C2995
:1047E00003DA02225D4BDA705BE089B2652903DAF5
:1047F00003225A4BDA7054E089B27E2903DA04228C
:10480000564BDA704DE089B2972903DA0522534BF3
:10481000DA7046E089B2B02903DA06224F4BDA702B
:104820003FE089B2C92903DA07224C4BDA7038E03D
:1048300089B2E22903DA0822484BDA7031E089B202
:10484000FB2903DA0922454BDA702AE089B2B1F577
:104850008A7F03DA0A22414BDA7022E089B2B1F58D
:10486000967F03DC0B223D4BDA701AE089B2B1F57A
:10487000A37F03DA0C22394BDA7012E089B2B1F56A
:10488000AF7F03DC0D22354BDA700AE089B2B1F557
:10489000BC7F03DA0E22314BDA7002E00F222F4B7D
:1048A000DA70704710B50400200040B2FFF778FEC0
:1048B0002B48007810F0FD0029490870284800783E
:1048C00050F0100026490870B82026490870264884
:1048D0000078C006FBD424480078C0F38100C0B241
:1048E0000228F8D11D48C3781C4882781B484178BB
:1048F0001A480078FFF750FE174864B210EB8400A6
:10490000807810F0070019490870134864B210EB62
:104910008400C07810F01F0050F040001449087067
:10492000114800788006FBD50F4800784006FBD57B
:104930000C48007810F03F000A4908700A480078D7
:10494000C0F38100C0B20328F8D1034864B230F844
:104950002400C0B210BD0000400BFF1F980BFF1FCA
:104960000140064000400640064006400440064024
:104970000540064001B4BDF80000002805D0BDF890
:104980000000401EADF80000F5E701B0704780B5AB
:10499000012201211A20FDF7D5FB01220121192056
:1049A000FDF7D0FB23211A20FDF7ECF82321192075
:1049B000FDF7E8F801BD80B501207A4908600120C3
:1049C000794908604FF4C870FFF7D4FF0020774999
:1049D000086077480068002804D101207349086006
:1049E000002016E001207149086000206D49086030
:1049F0004FF4C870FFF7BEFF00206B4908606C4899
:104A00000068002804D0012068490860002000E008
:104A1000012002BD80B50020634908600020614983
:104A200008604FF4C870FFF7A5FF01205E490860D9
:104A30004FF4C870FFF79EFF01205A4908604FF4F9
:104A4000C870FFF797FF01BD80B500205649086088
:104A50004FF4C870FFF78EFF0020524908604FF4F2
:104A6000C870FFF787FF01204F4908604FF4C870F6
:104A7000FFF780FF00204C4908604FF4C870FFF733
:104A800079FF01BD80B50020474908604FF4C87028
:104A9000FFF770FF0120434908604FF4C870FFF72B
:104AA00069FF0120404908604FF4C870FFF762FFBA
:104AB00000203D4908604FF4C870FFF75BFF01BD5F
:104AC00080B50020384908600020384908604FF45C
:104AD000C870FFF74FFF0120334908604FF4C870DA
:104AE000FFF748FF32480068002807D001202F490F
:104AF000086000202C490860002006E001202B49B6
:104B00000860002028490860012002BD38B5050072
:104B100008242000441EC0B2002818D0280603D55F
:104B200001202049086002E000201E4908606D0055
:104B30004FF4C870FFF71EFF01201B4908604FF4B7
:104B4000C870FFF717FF002017490860E1E731BD83
:104B500038B5082400250020144908602000441EB0
:104B6000C0B2002815D06D0000200F4908604FF436
:104B7000C870FFF7FFFE01200B4908604FF4C870B2
:104B8000FFF7F8FE0A4800680028E7D055F0010555
:104B9000E4E7012005490860002003490860EDB200
:104BA000280032BD6400FE436800FE43E402FE4379
:104BB0006402FE4370B504000D0000262900C9B24E
:104BC000200080B200F00AF8002805D1761CF6B269
:104BD000142EF3D1002000E0012070BD38B5040090
:104BE0000D00FFF7E8FE002801D1002019E0422067
:104BF000FFF78CFFFFF764FF002803D1FFF70AFFE0
:104C000000200EE02000C0B2FFF780FFFFF758FF42
:104C10002800C0B2FFF77AFFFFF752FFFFF7FAFE56
:104C2000012032BDF8B504000D0016000027320047
:104C3000D2B2290089B2200000F00AF8002805D17C
:104C40007F1CFFB21E2FF2D1002000E00120F2BD38
:104C500070B504000D001600FFF7ADFE002801D16D
:104C6000002037E04220FFF751FFFFF729FF00281F
:104C700003D1FFF7CFFE00202CE03000C0B2FFF7D9
:104C800045FFFFF71DFFFFF7C5FEFFF794FE002865
:104C900001D100201EE04320FFF738FFFFF710FF8F
:104CA000002803D1FFF7B6FE002013E0ADB2002DBF
:104CB0000DD0FFF74DFF2070ADB2012D02D1FFF7EF
:104CC000E1FE01E0FFF7C0FE641C6D1EEEE7FFF79A
:104CD000A1FE012070BD000080B5002200216720E8
:104CE000FDF730FA002200216920FDF72BFA00229F
:104CF00000216B20FDF726FA002200216D20FDF730
:104D000021FA002200216F20FDF71CFA0022002169
:104D10008120FDF717FA002200218320FDF712FA07
:104D2000002200216520FDF70DFA40F29153642224
:104D300001210320FCF796FD4FF47A7344F62062BC
:104D400003210020FCF78EFD4FF47A7344F62062B5
:104D500004210020FCF786FD4FF47A7344F62062AC
:104D600005210020FCF77EFD4FF47A7344F62062A3
:104D700006210020FCF776FD00224FF6FF7101208E
:104D800000F03AF9884800F0BBF9012201219B208C
:104D9000FDF7D8F96720FDF748FA844908706920C3
:104DA000FDF743FA824908706B20FDF73EFA81490E
:104DB00008706D20FDF739FA7F4908706F20FDF704
:104DC00034FA7E4908708120FDF72FFA7C4908707B
:104DD0008320FDF72AFA7B4908706520FDF725FA44
:104DE000794908707548007801280CD1744800781A
:104DF000002808D173480078002804D14FF42A70A5
:104E00007249088003E040F2DA20704908800FF20E
:104E10006D11672000F08BFA0FF2D511102000F011
:104E200086FA00F03EF96420FCF7EFFF00F029F964
:104E30006749088000F035F96548008865490870C1
:104E40000121644800F08AFA61480088512803DB98
:104E50005F4800887828E6DB00205D4908805B48D1
:104E6000028803210020FCF7D2FD4FF47A7204215E
:104E70000020FCF7CCFD5548028805210020FCF7F6
:104E8000C6FD4FF47A7206210020FCF7C0FD00F049
:104E900008F900F09BF94FF4966243494E4800F040
:104EA0007DFA01204D4908604D494B48FFF7E4F871
:104EB00000204A4908604548028847494848FBF7AE
:104EC000ABFA48490860474800688D2802DB8C200F
:104ED000444908604348006810F18C0F03DA7FF002
:104EE0008B004049086040F291503E490968421ADF
:104EF00001210320FCF78BFD00F0C3F83449088042
:104F000000F0CFF8324800880B280BDB30480088CF
:104F10000F2807DA3448007800280AD101203249E6
:104F2000087006E030480078012802D102202E499E
:104F300008702D480078022817D14FF47A720321A7
:104F40000020FCF764FD4FF47A7204210020FCF786
:104F50005EFD4FF47A7205210020FCF758FD4FF4F6
:104F60007A7206210020FCF752FD19480088194981
:104F700008700121174800F0F1F988E738B51B489F
:104F800000680028FBD01948006805005FF0FF307A
:104F9000164908601D20040035FA04F0C00701D549
:104FA00000F0E4F831BD0000740EFF1FA03BFF1FAE
:104FB000A13BFF1FA23BFF1FA33BFF1FA43BFF1F03
:104FC000A53BFF1FA63BFF1FA73BFF1F1004FF1FB2
:104FD000983BFF1F9F3BFF1F2413FF1F6C20FE43C6
:104FE000A438FF1F243BFF1FA83BFF1FA0900440D5
:104FF00080B500F0E1F801BD70B504000D001600A9
:105000002E48007850F080002C4908702C48006829
:1050100050F001002A49086064B2012C05D14FF418
:10502000C0611320FCF78CFD12E064B2022C05D1A4
:105030004FF480614520FCF783FD09E064B2012C48
:1050400006D064B2022C03D032211E48FCF7E5FDE5
:1050500000201D49086023201C490860ADB21C488F
:10506000056076B2012E01D1082000E0002064B274
:10507000210111F03001084350F04300124908604B
:1050800070BD11490968090603D54FF6FF71080084
:1050900005E000210F4A11600E490968080080B23E
:1050A0007047094800684008400007490860064802
:1050B000006850F001000449086070470050064045
:1050C00038800440405B00000000044004000440BD
:1050D000080004400C000440012110F01F02914020
:1050E000774A40B2430942F823107047012110F07B
:1050F0001F029140734A40B2430942F8231070479F
:1051000010B504007048046000F081F80028FBD05E
:1051100000F002F8002010BDE0B5012002904FF42D
:1051200096600190002000901B2367480268674941
:10513000002000F0ABF96648006840084000644970
:1051400008605720FFF7D2FF6248006850F0010066
:10515000604908600020FFF7BFFF5F491B20FCF794
:10516000EFFC5E491D20FCF7EBFC07BD80B55C48F9
:1051700090F90000042818D10320594908705720DD
:10518000FFF7B4FF5FF000605649086050480068C0
:1051900050F001004E4908605FF00060514908601E
:1051A000494800685049086005E05720FFF79EFF16
:1051B00002204B49087001BD01204949087045484B
:1051C000006850F0010043490860704780B5042032
:1051D000434908705FF0FF30424908605720FFF7ED
:1051E0007BFF3F4890F9000001280FD03C4890F920
:1051F00000000228F5D10420394908705FF0FF3023
:10520000384908605720FFF767FFEAE701BD10B58E
:1052100082B0002400208DF80000FFF7B8FB802149
:105220001220FFF7C7FC002804D13048FCF7C0FD6E
:10523000002043E03220FCF7E8FD0B22012100A80A
:10524000FFF7F0FC002804D12948FCF7B1FD00204D
:1052500034E09DF800102748FCF7AAFD26480178A5
:105260002648FCF7A5FD9DF80000212825D1002047
:10527000040021480078A4B280B2844218D22048A9
:10528000A4B210EB440041781D48A4B210F81400F9
:1052900080B2FFF78FFC002808D11948A4B210F89B
:1052A00014101848FCF784FD002007E0641CE0E7B8
:1052B0001548FCF77DFD012000E0002016BD000030
:1052C00000E100E080E100E0443BFF1F50F00F40B0
:1052D0000C800040248000400201020012010900FD
:1052E000D40BFF1FA090044010900040FC5C000015
:1052F000645D00000C5C00003C0CFF1F845C00003F
:10530000D80BFF1F145D0000305C000010B50400D6
:105310004FF4007094FBF0F101FB1041002903D021
:105320001E210B48FCF779FC0A48046010BD38B513
:1053300004000D00074800680749884203D0302167
:105340000348FCF76AFC044864B240F8245031BDBD
:10535000985B000008ED00E00000FF1F38B5040076
:105360000D000C480088ADF802000B480088ADF82D
:10537000000002220DF102010420FCF776FE2A0053
:1053800021000420FCF771FE022200A90420FCF792
:105390006CFE31BDCA2E000012300000F8B4234B61
:1053A0001B88ADF8003005000C001600721E002EA0
:1053B0003AD026783300641C00AEDBB2DF11BE5D4C
:1053C0002E706D1C00AEC3F38017FFB2BE5D2E7051
:1053D0006D1C00AEC3F34017FFB2BE5D2E706D1C96
:1053E00000AEC3F30017FFB2BE5D2E706D1C00AEA1
:1053F000C3F3C007FFB2BE5D2E706D1C00AEC3F3D9
:105400008007FFB2BE5D2E706D1C00AEC3F3400777
:10541000FFB2BE5D2E706D1C00AEDBB213F0010753
:10542000BE5D2E706D1CC0E7F1BC7047922E00006F
:105430002DE9F84380460C005FEA981010F0070051
:10544000C0B25FEA40194046103810F03F00C0B2C9
:10545000C000050015EB09000700E4B217EBC4001B
:10546000401E0600F6B2FFB2BE420DD3002200215C
:105470003800C0B2FCF766FE4FF481713800C0B24C
:10548000FCF75EFB7F1CEDE7BDE8F1832DE9F84FEB
:1054900004000D0016001F009DF92880DDF82C90F7
:1054A000DDF830A04FFA88F8B8F1000F02D15FF0B4
:1054B000010B11E04FFA88F8B8F1010F02D15FF04B
:1054C000020B09E04FFA88F8B8F1020F02D15FF041
:1054D000040B01E05FF0100B4FFA88F8B8F1000FF1
:1054E00005D16748854202D36648A84221D24FFAC7
:1054F00088F8B8F1010F09D16148854206D36248A6
:10550000A84203D315F00300032812D14FFA88F8FC
:10551000B8F1020F09D15A48854206D35B48A84228
:1055200003D315F00300002803D061215848FCF78D
:1055300074FBB9F5004F03D363215548FCF76DFBAD
:105540005448006850F00200524908605248006810
:1055500050F0020050490860504864B261010D509B
:1055600064B2600100F1804010F510400661002037
:1055700064B2610101F1804111F5104188805FFA48
:105580008BFB64B2600100F1804010F51040A0F880
:1055900014B04FFA88F85FEA082010F4E0604FFA80
:1055A00088F818F00701084364B2610101F18041F5
:1055B00011F51041C88048464004400C64B26101B6
:1055C00001F1804111F51041C88248464004400C69
:1055D00064B2610101F1804111F51041C883304886
:1055E000006830F080002E4908605FFA8BFB64B2DF
:1055F000600100F1804010F51040C0F808B00020B4
:1056000064B2610101F1804111F51041C8605FEAA7
:10561000CA7002D4D9F1000000E0002064B2610138
:1056200001F1804111F5104188614CF20A0064B229
:10563000610101F1804111F510418883FFB27809C1
:10564000313050F08000174964B260541649380078
:10565000C0B2FCF775FA5946C9B22800FFF7E8FE58
:10566000124800680121A140884310490860104891
:1056700000680121A14008430D490860BDE8F18F91
:1056800010F00F4013F10F4012F10F4010F10F40D6
:10569000905A0000408004403C800440009000404C
:1056A0000080004000100240000101000C8000401A
:1056B00024800040DFF800F00B1E0000DFF800F04F
:1056C0001B1C0000F0205449087053480078000665
:1056D000FBD5514800787121084201D0002000E03C
:1056E0000120704780B54D48006850F400204B49B8
:1056F0000860494800780006FBD5F020464908704C
:105700000A20FFF7D7FF01BD10B582B00400A4B294
:105710004FF4805000FB04F00090092040490870CD
:105720009DF802003F4908709DF801003E4908704D
:105730009DF800003D490870FFF7C4FF002801D123
:1057400000200EE0A4B2002C0AD15FF0FF327FF0FF
:1057500001034FF48161200080B200F003F800E003
:10576000012016BDF0B583B006000F0014001D0027
:10577000B6B24FF48050BFB200FB06700190BFB2CA
:10578000082097FBF0F101FB1071002903D0EA21FA
:105790002748FFF793FFBFB2B7F5805F03DDEC2129
:1057A0002348FFF78BFF9DF806001E4908709DF8FF
:1057B00005001D4908709DF804001C4908700094FC
:1057C0009DF803001B4908709DF802001A490870F3
:1057D0009DF80100194908709DF8000018490870EB
:1057E00007200F49087000959DF8030015490870BF
:1057F0009DF80200144908709DF8010013490870D3
:105800009DF8000012490870FFF75CFF002801D1E5
:10581000002000E00120FEBD0000024004F0014035
:10582000070002400600024005000240040002405A
:10583000BC5A00000B0002400A000240090002406E
:10584000080002400F0002400E0002400D0002401E
:105850000C000240F0B4114E366834000F4E36682A
:1058600056F47F060D4F3E600E0616F0706656EA3F
:105870000076170517F470073E431F0417F47027CE
:105880003E43074F3E6000263500EDB29D4201D2F7
:105890006D1CFAE7014E3460F0BC704700F0014027
:1058A0004480044080B500F09DF800F030F800F02E
:1058B00010F8FCF7CFF9012201210420FCF742FC8B
:1058C0003948006850F4700037490860FFF704FA5F
:1058D000FEE780B50C20FEF7E5FF34490860334849
:1058E00000684FF47A7148433149086030480068D5
:1058F00030490968C1F30361491CB0FBF1F02E493E
:1059000008605FF4E1310420FCF796FA01BD2DE94F
:10591000F8432A482A4988420DD000208046B8F52D
:10592000826F08D2264850F82800244941F8280000
:1059300018F10108F3E72148FFF7E8FC21480700C8
:105940002148060021480400A01B80464046B0F1D3
:105950000108002804D030783870761C7F1CF5E7E9
:105960001B4881461B480500B5EB090080464046B0
:10597000B0F10108002805D0002089F8000019F1D5
:105980000109F4E714481549154A531A9846434645
:10599000B3F10108002B04D00B780370491C401CA4
:1059A000F5E7BDE8F183000088ED00E03C3BFF1F18
:1059B000383BFF1F44800440403BFF1F0000FF1F97
:1059C000000000001004FF1F0838000078400000AD
:1059D000700EFF1FA93BFF1F800CFF1FB456000075
:1059E000A458000080B500F008F80C4800884FF675
:1059F000FE7108400949088001BDEFF3118072B6BD
:105A00004CF22051064A11804DF62811044A1180AB
:105A1000C0B2002800D162B67047000000200540E7
:105A20000E2005400A2A2A2A2A64656661756C746C
:105A30005F69737220656E7465726564206F6E2095
:105A4000766563746F722025642A2A2A2A2A0A0A34
:105A5000257320496E7465727275707400000000C1
:105A6000453A5C4D4B363046585C4C43445F3737C3
:105A700032355F70635C436869705C7372635C4D60
:105A80004B36305F5379735469636B2E63000000AB
:105A9000453A5C4D4B363046585C4C43445F373793
:105AA00032355F70635C436869705C7372635C4D30
:105AB0004B36305F646D612E63000000453A5C4DEB
:105AC0004B363046585C4C43445F373732355F7055
:105AD000635C436869705C7372635C4D4B36305F26
:105AE000666C6173682E6300453A5C4D4B363046F8
:105AF000585C4C43445F373732355F70635C4368B2
:105B000069705C7372635C4D4B36305F66746D2EEA
:105B100063000000453A5C4D4B363046585C4C43C0
:105B2000445F373732355F70635C436869705C731C
:105B300072635C4D4B36305F6770696F2E63000097
:105B4000453A5C4D4B363046585C4C43445F3737E2
:105B500032355F70635C436869705C7372635C4D7F
:105B60004B36305F6C70746D722E6300453A5C4D3D
:105B70004B363046585C4C43445F373732355F70A4
:105B8000635C436869705C7372635C4D4B36305F75
:105B9000756172742E630000453A5C4D4B36304699
:105BA000585C4C43445F373732355F70635C436801
:105BB00069705C7372635C6D6973632E63000000CF
:105BC00010B5074979441831064C7C44163404E07A
:105BD0000A68081D511888470146A142F8D110BD36
:105BE0007400000080000000417373657274696F77
:105BF0006E206661696C656420696E202573206182
:105C000074206C696E652025640A00000A4765747B
:105C10002049442073756363657373A3AC53454E89
:105C2000534F522049442069732030782578000072
:105C30000A4F56373732352052656769737465727B
:105C400020436F6E666967205375636365737321C4
:105C50000000000007D2FFFF3C2D0000700EFF1F68
:105C6000000000000ABDF8D0D0BDE2CBF8B2D9D711
:105C7000F7A3ACC7EBD6D8D0C2CBA2C8EBB9CCBC8B
:105C8000FE0000000A436F6E66696720526567690F
:105C900073746572204E756D62657220697320257C
:105CA000642000004EF68851CEF20001086840F4EE
:105CB000700008604FF00070E1EE100A70470000BD
:105CC00000F00BF8002801D0FFF77AFF0020C04653
:105CD000C046FFF701F800F002F80120704700F01D
:105CE00001B800000746384600F002F8FBE7000064
:105CF00001491820ABBEFBE7260002000ABEAFB880
:105D0000E63A53434342D0B4CAFDBEDDB4EDCEF310
:105D1000000000000ABEAFB8E63AD0B4BCC4B4E696
:105D2000C6F730782578CAA7B0DC000038B504463D
:105D30000D46284600F006F8A84218BF0024204669
:105D400032BD00000149FBF77BBF00BF400CFF1FC5
:105D50000ABDF8C8EBCBC0D1ADBBB7B5C8B4FDA385
:105D6000A10000000ABEAFB8E63AB6C1C8A14944D6
:105D7000CAA7B0DC00000000C046C046FFF792FF93
:105D8000FFF79EFF00000000000000000000000080
:105D90000000000000000000000000000000000003
:105DA000FFFFFFFFFFFFFFFF0000000000000000FB
:105DB00000000000000000000000000000000000E3
:105DC000000000000000000000000000FFFFFFFFD7
:105DD000FFFF0000000000000000000000000000C5
:105DE00000000000000000000000000000000000B3
:105DF00000000000000000000000000000000000A3
:0C5E000000000000000000000000000096
:0400000500005D7921
:00000001FF
